:100000000C9443000C9460000C9460000C9460000D
:100010000C9460000C9460000C9460000C946000E0
:100020000C9460000C9460000C9460000C946200CE
:100030000C9460000C9460000C9460000C946000C0
:100040000C9460000C9460000C9486000C94B30037
:100050000C9460000C9460000C9460000C946000A0
:100060000C9460000C946000111C191C6E1C741C14
:100070002F1D2F1D2F1D2F1D2F1D2F1DF01CF51C9B
:10008000FA1C051D1B1D11241FBECFEFD8E0DEBFDB
:10009000CDBF11E0A0E0B1E0EAE4F4E402C00590D5
:1000A0000D92A232B107D9F721E0A2E2B1E001C07E
:1000B0001D92A535B207E1F70E948C1E0C942322F5
:1000C0000C9400001F920F920FB60F9211242F93E1
:1000D0003F934F935F936F937F938F939F93AF93D0
:1000E000BF93EF93FF930E94021EFF91EF91BF9188
:1000F000AF919F918F917F916F915F914F913F91C0
:100100002F910F900FBE0F901F9018951F920F9276
:100110000FB60F9211248F939F93EF93FF939091BB
:10012000C600809124018031A8F4809124018F5F62
:1001300080932401E091220181E08E0F80932201BF
:10014000F0E0EE5DFE4F938380912201803110F04C
:1001500010922201FF91EF919F918F910F900FBE0E
:100160000F901F9018951F920F920FB60F921124A7
:100170008F93EF93FF93E091360181E08E0F809390
:100180003601F0E0EB5CFE4F83818093C6008091E6
:100190003601803110F01092360180913701815084
:1001A00080933701811105C08091C1008F7D8093BC
:1001B000C100FF91EF918F910F900FBE0F901F9094
:1001C0001895809124010895809124018823E1F3FA
:1001D0008091C1008F778093C100E091230181E07D
:1001E0008E0F80932301F0E0EE5DFE4F83819091AE
:1001F0002301903110F0109223019091240191502D
:10020000909324019091C10090689093C10008954B
:100210009091370180E1891B0895909137019031C9
:10022000E1F39091C1009F7D9093C10090913701BF
:100230009F5F90933701E091350191E09E0F90937D
:100240003501F0E0EB5CFE4F838380913501803116
:1002500010F0109235018091C10080628093C1003E
:100260000895CF93C82F0E940D01CA3019F48DE074
:100270000E940D0180E090E0CF910895CF93DF932D
:10028000DB01FC019A012230310538F0CD91DD917E
:10029000C193D19322503109F6CF9A012E7FFC01F0
:1002A000E20FF31FDB01A20FB31F4217530711F038
:1002B0002C912083DF91CF9108950F931F93CF93BB
:1002C000DF938B01FB013996DC011E964D915D9108
:1002D0006D917C915197452B462B472B09F450C0CB
:1002E00052960D90BC91A02D9D01A8014F5E5F4FCD
:1002F000E90189919E01803261F0853009F485EE33
:100300003196BF0161507109EB018883E417F5074D
:1003100079F718968C9118978032B9F08EE2808325
:100320009D01285F3F4FAF014C5F5F4F3196E90160
:1003300089919E01803249F03196BF016150710967
:10034000EB018883E417F50791F71B968C911B97B7
:10035000E80188875C964D915D916D917C915F97E6
:10036000488359836A837B8358968D919C915997D2
:100370009D838C8356968D919C9157979F838E83F6
:100380001082DF91CF911F910F9108954F925F924C
:100390006F927F92AF92BF92CF92DF92EF92FF92D5
:1003A0000F931F93CF93DF93FC0142A453A464A443
:1003B00075A4441655066606770611F480E050C011
:1003C0006A017B01EC018481811106C0C114D10452
:1003D000E104F10499F335C05F01FEE2AF0EB11CF8
:1003E00001E0A3019201B50189810E948E1D88233D
:1003F00011F081E035C01C824E8D5F8D68A179A11E
:100400008A8D9B8DAC8DBD8D840F951FA61FB71F48
:10041000481659066A067B06C8F61B811230B0F2F0
:100420008A8D9B8DAC8DBD8D480E591E6A1E7B1E1C
:1004300001E0A3019201B50189810E948E1D115036
:10044000EDCF01E0A7019601BE01625D7F4F89817A
:100450000E94481D8111CDCFCAA6DBA6ECA6FDA641
:10046000DF91CF911F910F91FF90EF90DF90CF9090
:10047000BF90AF907F906F905F904F9008950F93D3
:10048000CF93DF93EC019A01AB01BC01625D7F4F1A
:1004900001E089810E94481D811122C0FE01E45DB6
:1004A000FD4F8081918185359A4AE1F4E85CF14005
:1004B00080819181A281B381BB2786349144A44578
:1004C000B10591F0C058DF4F488159816A817B8125
:1004D000772781E0463451446445710531F404C006
:1004E00083E003C082E001C080E0DF91CF910F91F3
:1004F00008952F923F924F925F926F927F928F92C8
:100500009F92AF92BF92CF92DF92EF92FF920F93A2
:100510001F93CF93DF93CDB7DEB72E970FB6F89426
:10052000DEBF0FBECDBFDC01ED91FC91208130E03C
:10053000205331092A30310560F0E0914A01F091F1
:100540004B01FE87ED87DB01ED93FC93EF2B61F40C
:1005500008C251815A3389F73296DC01ED93FC933E
:10056000232B59F38BE01EC2142FED85FE8580816D
:10057000882361F081810E94F61D80FD07C0112350
:1005800009F4F1C182FFEFC18AE00CC2AD85BE85DE
:100590001C9211961C9280E00E94151B80FDE5C103
:1005A000112311F082FDF0CF40E050E0BA018D85BB
:1005B0009E850E943F028130C1F4ED85FE85E051A9
:1005C000FE4F8081811102C08DE0ECC1ED85FE857A
:1005D000EC50FE4F4080518062807380B301A201D5
:1005E0008D859E850E943F0203C0412C512C320113
:1005F000833009F4BCC18111E7CFED85FE8581AD63
:1006000092AD8115924001F7ED85FE85EC5BFF4FC1
:1006100080809180A12CB12C81149104A104B1049B
:1006200041F4ED85FE85EE5AFF4F80809180A280D7
:10063000B380AD85BE855A968D929D92AD92BC9247
:100640005D97DE964C91DE9713964C9313978FEF40
:10065000840F823008F0B8CFDB961C91DB9712969E
:100660001C931297112309F4AFCF812F90E09C01C6
:100670002150310982239323892B09F0A5CFFD0155
:10068000FF962080318019963C922E921897C101D6
:100690008F709927892B09F097CF3296C080D1802F
:1006A000E12CF12CC114D104E104F10429F43D96AC
:1006B000C080D180E280F380AD85BE85DC96ED916F
:1006C000FC91DD97309709F47FCFA42FB0E0A5010E
:1006D00094010E942B1F6D837E838F8398879F01D7
:1006E00040E050E029873A874B875C87C10164E08E
:1006F000969587956A95E1F7280F391F411D511D81
:10070000DA01C9012D813E814F815885280F391F9B
:100710004A1F5B1F29833A834B835C83C216D3062F
:10072000E406F50608F450CFC701B601621B730B4F
:10073000840B950B212F30E040E050E00E94031F16
:10074000211531054105510509F43ECF69017A01B2
:1007500062E0C60ED11CE11CF11C89819A81AB813B
:10076000BC81840D951DA61DB71D89839A83AB831B
:10077000BC8389859A85AB85BC85840D951DA61D96
:10078000B71D263FEFE03E074105510580F1263FAA
:100790003F4F4105510508F4ECC0ED85FE85C68A42
:1007A000D78AE08EF18E29813A814B815C8126A324
:1007B00037A340A751A7868F978FA0A3B1A3232863
:1007C00009F002CFE65AFF4F80819181A281B38167
:1007D000ED85FE8582A393A3A4A3B5A342E0CC0C30
:1007E000DD1CEE1CFF1C4A95D1F713E02BC011E075
:1007F000ED85FE85C68AD78AE08EF18E29813A8101
:100800004B815C8126A337A340A751A7868F978F82
:10081000A0A3B1A3232809F4D7CE2D813E814F8117
:100820005885820F931FA41FB51FED85FE8582A3F7
:1008300093A3A4A3B5A3123009F09DC0CC0CDD1C7A
:10084000EE1CFF1C2FEFC20E21E0D21EE11CF11C9A
:1008500089E0F694E794D794C7948A95D1F78C14DD
:100860009D04AE04BF0408F4AFCE8FEF9FEFDC0110
:10087000ED85FE8586879787A08BB18BDF01128679
:10088000138614861586133009F054C01582E25A77
:10089000FF4F80819181A3019201280F391F411DD3
:1008A000511DFD01228B338B448B558B01E0BD0123
:1008B000625D7F4F81810E94481D81113BC0ED85A3
:1008C000FE85E45DFD4F8081918185359A4A91F5E1
:1008D000ED85FE8586A597A5A0A9B1A9823592458B
:1008E000A146B14439F5ED85FE85EE5EFD4F808170
:1008F0009181A281B38182379247A144B146D1F45C
:10090000ED85FE85E65EFD4F80819181A281B381F8
:10091000ED85FE8582879387A487B587EA5EFD4FC4
:1009200080819181A281B381ED85FE85868797873D
:10093000A08BB18BAD85BE851C93809148019091B1
:1009400049010196909349018093480117969C9321
:100950008E931697FD0112A613A614A615A614824F
:1009600002C08CE01FC080E01DC083E01BC081E09E
:1009700019C012E03DCFA3E0B0E0A70196010E94AC
:100980002B1FDC01CB01B695A79597958795F1E0D4
:10099000CF22DD24EE24FF24C80ED91EEA1EFB1E42
:1009A00011E050CF2E960FB6F894DEBF0FBECDBF2C
:1009B000DF91CF911F910F91FF90EF90DF90CF903B
:1009C000BF90AF909F908F907F906F905F904F906F
:1009D0003F902F900895009781F0FC012081222301
:1009E00061F0268137812617370739F481810E940B
:1009F000F61D80FD04C080E0089589E0089583E03D
:100A000008950F93CF93DF93EC0140E050E0BA01DB
:100A10000E94C601982F811155C08881833009F04A
:100A200047C08D81882309F443C01AA61BA61CA6C3
:100A30001DA6BE01625D7F4FFB01CE01825D9D4F11
:100A4000E817F90711F01192FBCF85E59AEAFE014C
:100A5000E45DFD4F9183808382E592E5A1E6B1E4F8
:100A60008EA79FA7A8ABB9AB82E792E7A1E4B1E656
:100A70007A9780839183A283B3838E859F85A8898B
:100A8000B989349680839183A283B3838A859B85B9
:100A9000AC85BD85349680839183A283B3832A89F4
:100AA0003B894C895D8901E089810E948E1D1D82F0
:100AB00040E050E060E089810E94D81B91E0811104
:100AC00001C090E0892FDF91CF910F9108950F938E
:100AD0001F93FC019A01AB012250310941095109D0
:100AE00086899789A08DB18D0297A109B109281730
:100AF00039074A075B0768F4A281B0E00E942B1F08
:100B000006A117A120A531A5600F711F821F931F99
:100B100003C060E070E0CB011F910F910895AF9288
:100B2000BF92CF92DF92EF92FF920F931F93CF93DA
:100B3000DF93423051056105710508F4A9C0FC013D
:100B400006891789208D318D401751076207730779
:100B500008F09EC06A017B01EC018081823009F4BB
:100B600048C0833009F468C0813009F096C05A014A
:100B7000B694A794AC0CBD1CC501892F9927869506
:100B80004E8D5F8D68A179A1480F591F611D711DA0
:100B9000CE010E94C601811180C0F501F170EC0FF9
:100BA000FD1F16A5FFEFAF1ABF0AC501892F9927B0
:100BB00086954E8D5F8D68A179A1480F591F611DE3
:100BC000711DCE010E94C601811167C0C5019170DF
:100BD000FE01E80FF91F86A5612F70E0782BC0FE9B
:100BE00006C054E0769567955A95E1F722C07F706C
:100BF00020C077276F2D5E2D4D2D868D978DA0A15E
:100C0000B1A1480F591F6A1F7B1FCF010E94C60167
:100C1000811143C0CC0CDD1CEE1CFF1CE894C0F815
:100C200081E0D822EE24FF24FE01EC0DFD1D66A517
:100C300077A580E090E034C0868D978DA0A1B1A10A
:100C400027E076956795579547952A95D1F7480FF0
:100C5000591F6A1F7B1FCF010E94C60181111DC051
:100C600082E0CC0CDD1CEE1CFF1C8A95D1F7ECEF6A
:100C7000CE22E1E0DE22EE24FF24FE01EC0DFD1D7C
:100C800086A597A5A0A9B1A9BC01CD019F7008C0F8
:100C900061E070E080E090E003C06FEF7FEFCB0198
:100CA000DF91CF911F910F91FF90EF90DF90CF9048
:100CB000BF90AF900895EF92FF920F931F93CF9341
:100CC000DF938C01EB01DC0115967C936E931497F6
:100CD00016964D915D916D917C911997413051051A
:100CE0006105710511F482E087C0DC01ED91FC9192
:100CF00086899789A08DB18D481759076A077B07A8
:100D000090F7411551056105710519F58081833012
:100D100049F442A153A164A175A141155105610592
:100D20007105B9F4D8011A961D921D921D921C925C
:100D30001D9780859185C817D907A8F682A193A130
:100D4000A4A1B5A19E0154E0369527955A95E1F7E7
:100D500039C0E280F0E1EF9E70011124F80180813A
:100D60009181CE15DF0500F10E948F05AB01BC011A
:100D70004F3F8FEF580768077807E9F14230510578
:100D80006105710508F4AFCFD801ED91FC9186891A
:100D90009789A08DB18D481759076A077B0708F01E
:100DA000A2CFCE19DF09DACF4287538764877587D0
:100DB0000E9467059E0144E0369527954A95E1F724
:100DC000DC01CB01820F931FA11DB11DF8018687A5
:100DD0009787A08BB18B808191818E96CF70DD2714
:100DE00025E0CC0FDD1F2A95E1F7C80FD91FD38B63
:100DF000C28B80E001C081E0DF91CF911F910F9104
:100E0000FF90EF900895CF93DF93EC016C817D818B
:100E10000E945B06811112C04E855F8568897989C1
:100E2000888199810E94C601811108C0EA89FB89E5
:100E300095EE9083E881F98191E09483DF91CF91E1
:100E400008954F925F926F927F92AF92BF92CF922E
:100E5000DF92EF92FF920F931F93CF93DF9300D017
:100E600000D000D0CDB7DEB7423051056105710525
:100E700008F4F0C0DC015696CD90DD90ED90FC902A
:100E800059974C155D056E057F0508F0E3C02801F4
:100E900039016A017B019E838D83FC018081823050
:100EA00009F46FC0833009F493C0813009F0CBC0DE
:100EB0005A01B694A794AC0CBD1CC501892F992783
:100EC0008695468D578D60A171A1480F591F611DF0
:100ED000711DCF010E94C6018111B6C0F501F170EC
:100EE0002D813E81E20FF31FD701C6018170992742
:100EF000AA27BB2789839A83AB83BC83C0FE09C022
:100F000086A5282F2F70A0E14A9EC0011124822BB4
:100F100001C0842D86A7BFEFAB1ABB0A81E0ED812B
:100F2000FE818483C501892F99278695468D578D2B
:100F300060A171A1480F591F611D711DCF010E9451
:100F4000C601811181C0F1E0BF22ED81FE81EA0D71
:100F5000FB1D29813A814B815C81232B242B252B7E
:100F600041F054E076946794579447945A95D1F79A
:100F700006C006A5007F952D9F70402E492A46A6E3
:100F800063C077276F2D5E2D4D2DED81FE81868DFF
:100F9000978DA0A1B1A1480F591F6A1F7B1FCF01D8
:100FA0000E94C601811150C0CC0CDD1CEE1CFF1C40
:100FB000E894C0F8F1E0DF22EE24FF242EE2C20E16
:100FC000D11CED81FE81EC0DFD1D518240823CC0A3
:100FD000ED81FE81868D978DA0A1B1A127E0769548
:100FE0006795579547952A95D1F7480F591F6A1F5E
:100FF0007B1FCF010E94C601811126C092E0CC0C5C
:10100000DD1CEE1CFF1C9A95D1F7FCEFCF22F1E01E
:10101000DF22EE24FF242EE2C20ED11CED81FE81E0
:10102000EC0DFD1D008111812281338100271127E4
:101030002227307F402A512A622A732A4082518215
:101040006282738201C082E091E0AD81BE8114961C
:101050009C9301C082E026960FB6F894DEBF0FBEC7
:10106000CDBFDF91CF911F910F91FF90EF90DF9057
:10107000CF90BF90AF907F906F905F904F9008950A
:101080004F925F926F927F928F929F92AF92BF9298
:10109000CF92DF92EF92FF920F931F93CF93DF9344
:1010A000EC012A013B01411551056105710599F4D7
:1010B0008A849B84AC84BD8481149104A104B1040E
:1010C00009F18E899F89A88DB98D88169906AA067F
:1010D000BB06E0F017C00E948F056B017C016230F7
:1010E00071058105910508F482C08E899F89A88DBC
:1010F000B98DC816D906EA06FB0608F47DC053016F
:10110000420104C0812C912C540183947501640127
:101110008FEFC81AD80AE80AF80A8E899F89A88D25
:10112000B98DC816D906EA06FB0668F022E08216D9
:101130009104A104B10410F460E05AC082E0C82E0A
:10114000D12CE12CF12CB701A601CE010E948F0514
:101150006115710581059105B1F06F3F2FEF7207A1
:101160008207920729F46FEF7FEF8FEF9FEF46C062
:101170006130710581059105D1F1C814D904EA04E3
:10118000FB0431F6D9CF0FEF1FEF2FEF3FE0B70190
:10119000A601CE010E942107811126C041145104ED
:1011A00061047104C1F4CA86DB86EC86FD868E85F7
:1011B0009F85A889B9898F3F2FEF9207A207B207B1
:1011C000D9F00197A109B1098E879F87A88BB98BA8
:1011D00081E08D8311C097018601B301A201CE0188
:1011E0000E9421078823F9F2813009F4BCCF61E025
:1011F00070E080E090E002C0B601C701DF91CF91BE
:101200001F910F91FF90EF90DF90CF90BF90AF9024
:101210009F908F907F906F905F904F9008958F92E6
:101220009F92AF92BF92CF92DF92EF92FF920F9375
:101230001F93CF93DF93EC016B010C811D810F5F36
:101240001F4F11F484E0E2C04E855F85688979897B
:101250004115510561057105A9F378018FE0E82278
:10126000FF24E114F10409F0C0C04F5F5F4F6F4FDE
:101270007F4F4E875F87688B798B4A855B856C854E
:101280007D8588819981FC014115510561057105B4
:1012900031F48085918508171907A0F6A6C0228130
:1012A00030E021503109F801A4E0F695E795AA95C0
:1012B000E1F72E233F23232B09F097C00E948F05CF
:1012C0004B015C01623071058105910510F482E0EB
:1012D0009DC08FEF88169806A806B80611F481E025
:1012E00095C088819981FC0146895789608D718DEF
:1012F00084169506A606B70608F469C0CD2809F439
:10130000A1CF4A855B856C857D850E9440084B0195
:101310005C01611571058105910509F476C06130A4
:1013200071058105910599F28FEF88169806A80638
:10133000B806A9F240E050E0BA01888199810E9484
:10134000C6018111CCCF88819981FC01BE96825D56
:101350009D4F8E179F0711F01192FBCFC880D98047
:10136000B501A401C6010E946705F60162A773A733
:1013700084A795A7D12CCC24C394E881F9818281DC
:10138000D816C8F4C48240E050E0BA01888199813F
:101390000E94C6018111A3CFE881F98182A593A59E
:1013A000A4A5B5A50196A11DB11D82A793A7A4A7C9
:1013B000B5A7D394E2CF82A593A5A4A5B5A58D1911
:1013C0009109A109B10982A793A7A4A7B5A78A8605
:1013D0009B86AC86BD86B501A401888199810E9457
:1013E00067056E877F87888B998B1D830C83888127
:1013F00099818E9625E0EE0CFF1C2A95E1F7E80E08
:10140000F91EFB8AEA8A80E001C087E0DF91CF9174
:101410001F910F91FF90EF90DF90CF90BF90AF9012
:101420009F908F900895AF92BF92CF92DF92EF92EC
:10143000FF920F931F93CF93DF93EC018B01FB017E
:1014400080818F3211F08C3511F40F5F1F4F1E8297
:101450001F8218861986F8018081803228F030E2D8
:10146000F32E45E0E42E5FC060E070E0CE010E9404
:101470005B061B8A1A8AFFC080E090E060E070E0A3
:1014800048E050E0A12C9B012F5F3F4FD801A60FF1
:10149000B71FBC90A0E2AB1508F450C0020F131F99
:1014A000A0E2AB1508F095C020E0892B09F4C0C07C
:1014B0008081853E09F4E0824830510511F4AA0C80
:1014C000AA0C8A2D8370813009F420618A2D8C70DA
:1014D000843009F42860238760E070E0CE010E9428
:1014E0005B06882309F477C0EC89FD899385811117
:1014F00099C092FDC0C0EA89FB89838584FF96C0AC
:1015000084899589A0E0B0E0DC0199278827428D85
:10151000538D60E070E0842B952BA62BB72B8E8328
:101520009F83A887B987EC89FD89DF01CF010B96DE
:10153000A817B90709F4A0CFFD92FACFAFE2BA1607
:1015400009F4ACCFACE5BA1609F4A8CFAEE2BA16EE
:1015500009F487C08417950708F06AC0B7FE03C076
:10156000AA2DA360AA2EAFE7AB0DAF3120F0A0E209
:10157000AB0DAD3110F56E5F7F4FD801A20FB31FD9
:101580002C9130EC320F3F3328F030E8320F3D37EA
:1015900008F04EC0DA0111978A179B0708F048C07F
:1015A000DF01A80FB91FBC92DC011196AE0FBF1F5F
:1015B00002962C939B01B90166CFCB2CD12CA3E1D1
:1015C000B1E06D916623B1F170E0C616D706C9F798
:1015D0002FC024E06ACF4E855F856889798988812C
:1015E00099810E94C60181117FCFEA89FB89908190
:1015F0009923B1F0938593FD0DC0AC89BD89AF01EE
:10160000455F5F4FE417F50709F46ECF21919D9177
:101610002917C1F360E070E0CE010E940F0961CF8D
:1016200084E062CF843039F592FD25C085E023C087
:1016300086E021C06FEB6B0D6A3120F46A2D626089
:10164000A62E09C06FE96B0D6A3128F4AA2DA1609E
:10165000AA2E60EEB60EDF01A80FB91FBC9201964C
:10166000AACF4830510521F7AA0CAA0C88E090E0D7
:101670004BE050E0A0CFDF91CF911F910F91FF90F1
:10168000EF90DF90CF90BF90AF9008951F93CF93CE
:10169000DF93EC0160E070E00E945B06182F81117F
:1016A00038C04E855F8568897989888199810E94D3
:1016B000C601182F81112DC0EA89FB898081853EE2
:1016C00041F0882331F061E070E0CE010E940F0903
:1016D000E5CF4E855F8568897989888199810E94E7
:1016E000C601182F811115C08A899B89FC019C01B4
:1016F000205E3F4FE217F30711F01192FBCF6C8988
:101700007D894BE050E00E943E01E881F98181E053
:101710008483812FDF91CF911F910895CF93DF9321
:10172000EC0184E04E855F85688979894115510512
:1017300061057105E1F0888199810E94C6018111DE
:1017400018C0EA89FB8980818823C1F0853E39F081
:101750008E3229F0838583FD02C080E011C060E0F5
:1017600070E0CE010E940F098823E1F202C08823B5
:10177000A1F31E861F86188A198A02C084E0F9CF59
:10178000DF91CF9108957F928F929F92AF92BF92F7
:10179000CF92DF92EF92FF920F931F93CF93DF933D
:1017A000EC016A017B01423051056105710510F4BD
:1017B00082E04DC08E899F89A88DB98D4817590741
:1017C0006A077B07A8F7772473948E899F89A88D71
:1017D000B98DC816D906EA06FB0658F4B701A6016A
:1017E000CE010E948F054B015C01672B682B692B92
:1017F00011F480E02CC081E088169104A104B104AA
:10180000B9F22FEF82169206A206B206F9F000E0B6
:1018100010E09801B701A601CE010E9421078111B5
:1018200016C08E859F85A889B9898F3F2FEF9207B3
:10183000A207B20741F00196A11DB11D8E879F87B7
:10184000A88BB98B7D8275016401BFCF81E0DF91E8
:10185000CF911F910F91FF90EF90DF90CF90BF90AD
:10186000AF909F908F907F900895811112C0E0916A
:101870004A01F0914B01309709F010826115710512
:1018800011F0FB01108270934B0160934A0180E0DC
:1018900008958BE008954F925F926F927F928F929E
:1018A0009F92AF92BF92DF92EF92FF920F931F939E
:1018B000CF93DF93CDB7DEB7A4970FB6F894DEBF12
:1018C0000FBECDBF7C017CA36BA3B42EDC011D92A7
:1018D0001C92B42FBF71DB2E4E71BE016F5F7F4F24
:1018E000CE0183960E9479029E01295E3F4F3E8B76
:1018F0002D8B811106C06BA17CA1CE0101960E94A7
:10190000130A0B891C89811104C00115110509F402
:1019100086E09B2D9C7109F464C0882371F08430AB
:1019200021F4CE0101960E94460BED2DE860DE2EDB
:101930008111C0C00B891C8908C0B2FCB6C0D80197
:101940001B968C91817109F0B4C0D3FE5AC00E94DD
:10195000FD1DF80166877787808B918B1386148E27
:10196000158E168E178E84889588A12CB12CD401E3
:1019700099278827828C938CA12CB12C882A992AAC
:10198000AA2ABB2A138E128E158A148A89819A81FB
:1019900021E0DC0114962C93149781149104A10486
:1019A000B10461F19A964D905D906D907C909D97F9
:1019B000B501A4010E94C30B81117CC089819A8169
:1019C000B1E08B1A9108A108B108FC0182869386C8
:1019D000A486B586B301A2010E94C601882361F0E6
:1019E00069C0811167C0D8011B968C9184FD5FC0CE
:1019F000B1FE02C080FD5DC0D3FE03C0BD2DB0624C
:101A0000DB2EE981FA8142A553A564A575A5D7010E
:101A10005A964D935D936D937C935D975F961C935F
:101A20000E935E971496DC92D80154968D919C91FA
:101A30005597A0E0B0E05C0199248824D8015A961B
:101A40004D915C915B9760E070E0482959296A29C3
:101A50007B29D7011E964D935D936D937C9351978F
:101A6000D8015C964D915D916D917C915F97D70106
:101A70001A964D935D936D937C931D9716961D92C8
:101A80001D921D921C92199756961D921D921D92A1
:101A90001C9259971196FC93EE9386819781139629
:101AA0009C938E93129780E005C088E003C084E089
:101AB00001C087E0A4960FB6F894DEBF0FBECDBF7D
:101AC000DF91CF911F910F91FF90EF90DF90BF902A
:101AD000AF909F908F907F906F905F904F90089500
:101AE0002F923F924F925F926F927F928F929F922E
:101AF000AF92BF92CF92DF92EF92FF920F931F931C
:101B0000CF93DF93EC015B016A011901F9011182A6
:101B100010826A817B81888199810E94EB04811106
:101B20000CC18C8187FD06C180FF06C18A859B851B
:101B3000AC85BD854E815F8168857985841B950B59
:101B4000A60BB70BA60160E070E084179507A60707
:101B5000B70708F076C06C0174C04E815F8168855C
:101B60007985DB01CA019170AA27BB27892B8A2BB3
:101B70008B2B09F0B1C088819981FC012281215011
:101B80002A013B01E9E07694679457944794EA95DB
:101B9000D1F7122F142109F459C0888099804A89FD
:101BA0005B896C897D89C4010E9467056115710597
:101BB0008105910509F46AC02B013C01410E511CBD
:101BC000611C711C7601EF2CFF24E694E114F104F2
:101BD00009F47EC0F4018281212F30E0A9014E0D6D
:101BE0005F1D90E08417950718F47C01E21AF30A50
:101BF0000E2DA3019201B501F40181810E94481DBF
:101C0000811180C0E881F9818481811143C0FE2C5B
:101C1000EE24FF0CAE0CBF1C8E819F81A885B98578
:101C20008E0D9F1DA11DB11D8E839F83A887B9872F
:101C3000F101808191818E0D9F1D91838083CE184B
:101C4000DF08C114D10409F088CF72C0452B462BA0
:101C5000472B29F46E857F858889998906C04A8932
:101C60005B896C897D890E948F05623071058105D1
:101C7000910560F06F3FFFEF7F078F079F0709F423
:101C800041C06A8B7B8B8C8B9D8B87CF8C818068CE
:101C90008C8350C082A593A5A4A5B5A584199509E8
:101CA000A609B709A70160E070E084179507A607A9
:101CB000B70708F0ACCFBF01625D7F4F982F882730
:101CC000990F40E052E08A0D9B1D0E943E019FCF7C
:101CD0004E8A5F8A688E798E8E819F81917020E016
:101CE00032E0281B390B76012C153D0508F47901EB
:101CF0004E895F89688D798D888199810E94C6019E
:101D0000882329F08C8180688C8381E016C08E81C5
:101D10009F81A885B9859170AA27BB278E96688177
:101D20007981680F791FA701C5010E943E0172CF1A
:101D300080E003C082E001C087E0DF91CF911F9176
:101D40000F91FF90EF90DF90CF90BF90AF909F905A
:101D50008F907F906F905F904F903F902F9008955D
:101D60002F923F924F925F926F927F928F929F92AB
:101D7000AF92BF92CF92DF92EF92FF920F931F9399
:101D8000CF93DF93EC015B016A011901F901118224
:101D900010826A817B81888199810E94EB04811184
:101DA00067C18C8187FD61C181FF61C18A859B8587
:101DB000AC85BD85AC01BD014C0D5D1D611D711D66
:101DC000481759076A077B0708F0B3C08E819F81C7
:101DD000A885B9854A855B856C857D854817590737
:101DE0006A077B0708F03CC18A879B87AC87BD8761
:101DF00037C14E815F8168857985DB01CA019170A9
:101E0000AA27BB27892B8A2B8B2B09F0F9C0E881E5
:101E1000F981228121502A013B01A9E0769467943F
:101E200057944794AA95D1F7122F142109F486C02C
:101E300088819981FC0142A453A464A475A44E89AD
:101E40005F89688D798D441655066606770609F414
:101E5000ABC0888099804A895B896C897D89C4017F
:101E60000E946705611571058105910509F4A5C0FA
:101E70002B013C01410E511C611C711C7601EF2CA1
:101E8000FF24E694E114F10409F49BC0F40182817B
:101E9000212F30E0A9014E0D5F1D90E084179507BA
:101EA00018F47C01E21AF30A0E2DA3019201B50188
:101EB000F40181810E948E1D8111B8C088819981B1
:101EC000FC0142A553A564A575A5441955096609E9
:101ED00077092701612C712C441555056605770596
:101EE00070F4542F4427550FB501640F751F40E05F
:101EF00052E08E960E943E01E881F9811482FE2C08
:101F0000EE24FF0CAE0CBF1C8E819F81A885B98585
:101F10008E0D9F1DA11DB11D8E839F83A887B9873C
:101F2000F101808191818E0D9F1D91838083CE1858
:101F3000DF08C114D10409F05CCF48CF452B462BF4
:101F4000472BA1F46E857F85888999896115710574
:101F500081059105C1F440E050E0BA01CF010E9433
:101F600040086E877F87888B998B07C04A895B8979
:101F70006C897D89CF010E9440086115710581053A
:101F8000910509F423CF6130710581059105A9F010
:101F90006F3FFFEF7F078F079F0709F447C06A8BEA
:101FA0007B8B8C8B9D8B44CF40E050E0BA010E942C
:101FB000C601882309F44DCF39C08C8180688C8399
:101FC00054C04E815F81688579858A859B85AC8503
:101FD000BD85481759076A077B0770F040E050E05D
:101FE000BA01C4010E94C601811120C0E881F981B3
:101FF00042A653A664A675A64E8A5F8A688E798E1D
:102000008E819F81917020E032E0281B390B760190
:102010002C153D0508F479014E895F89688D798D0D
:10202000888199810E94C601882329F08C8180686B
:102030008C8381E01DC08E819F81A885B9859170B8
:10204000AA27BB278E9628813981A701B501820F67
:10205000931F0E943E01E881F98131E0348352CF21
:102060008C8180628C8380E003C082E001C087E0C5
:10207000DF91CF911F910F91FF90EF90DF90CF9064
:10208000BF90AF909F908F907F906F905F904F9098
:102090003F902F9008950F931F93CF93DF93EC0100
:1020A0006A817B81888199810E94EB04811139C00A
:1020B0009C8195FF36C04A8D5B8D6C8D7D8D8881AE
:1020C00099810E94C60181112CC00E8D1F8DF801CF
:1020D0008385806283878A859B85AC85BD85848F57
:1020E000958FA68FB78F8E859F85A889B989938F85
:1020F000828FB58BA48B0E94FD1DF801668B778BB8
:10210000808F918F8C818F7D8C83E881F98181E034
:10211000848388819981DF91CF911F910F910C94D5
:102120000105DF91CF911F910F910895CF93DF9318
:10213000EC010E944B10811102C019821882DF91BC
:10214000CF9108954F925F926F927F928F929F925C
:10215000AF92BF92CF92DF92EF92FF920F931F93B5
:10216000CF93DF9300D000D000D0CDB7DEB79E83F1
:102170008D836A017B01DC0112966D917C9113972E
:102180008D919C910E94EB0481117DC1ED81FE81B6
:10219000248127FD70C182859385A485B5858C1522
:1021A0009D05AE05BF0520F421FD02C06C017D0137
:1021B000AD81BE8116964D905D906D907C90199783
:1021C000FD011682178210861186C114D104E10424
:1021D000F10409F454C1AD81BE810D911C91F80147
:1021E0008280912CA12CB12C39E0880C991CAA1C5E
:1021F000BB1C3A95D1F7411451046104710409F4F0
:1022000040C0F1E04F1A510861087108C701B601DA
:102210006150710981099109A50194010E94031F70
:1022200029833A834B835C83C301B201A5019401E6
:102230000E94031F89819A81AB81BC818217930719
:10224000A407B507F0F088279927DC0188199909B8
:10225000AA09BB09482259226A227B22AD81BE818C
:1022600016964D925D926D927C921997C418D5087E
:10227000E608F70852964D915D916D917C915597C6
:102280002EC0ED81FE814685578560897189411593
:10229000510561057105E9F440E050E0BA01C8015B
:1022A0000E944008AB01BC01413051056105710538
:1022B00009F49EC04F3FBFEF5B076B077B0709F434
:1022C00062C0AD81BE811E964D935D936D937C93EC
:1022D0005197ED81FE81428B538B648B758B411539
:1022E00051056105710589F5C12CD12C760194C089
:1022F000423051056105710508F451C0AD81BE81C0
:10230000ED91FC9186899789A08DB18D4817590769
:102310006A077B0708F043C0AD81BE8152964D939A
:102320005D936D937C935597FD0186819781A08580
:10233000B185880D991DAA1DBB1D86839783A08733
:10234000B187C818D908EA08FB088C149D04AE04AC
:10235000BF0468F5AD81BE8114962C9114978D91C0
:102360009C9121FF17C00E944008AB01BC014115A0
:10237000510561057105C9F04F3FBFEF5B076B0762
:102380007B0709F0B5CFED81FE818481806884836D
:1023900081E079C00E948F05AB01BC01EDCFED81DA
:1023A000FE8184818068848366C075016401ED814B
:1023B000FE8186819781A085B1858C0D9D1DAE1D06
:1023C000BF1D86839783A087B187D701C60191700F
:1023D000AA27BB27892B8A2B8B2B09F485CF8081D9
:1023E00091810E946705611571058105910549F488
:1023F000AD81BE8114968C911497806814968C934D
:102400003AC029E0F694E794D794C7942A95D1F777
:10241000C60ED71EE81EF91EED81FE8186819781CA
:10242000A085B185AC01BD01517066277727452B8A
:10243000462B472B69F046895789608D718DC416EC
:10244000D506E606F70621F0C68AD78AE08EF18E19
:10245000ED81FE814285538564857585481759074E
:102460006A077B0750F482879387A487B5878481A6
:102470008062848302C082E006C080E004C080E005
:1024800090E0DC01E5CF26960FB6F894DEBF0FBED4
:10249000CDBFDF91CF911F910F91FF90EF90DF9013
:1024A000CF90BF90AF909F908F907F906F905F90F4
:1024B0004F9008950F931F93CF93DF93CDB7DEB75F
:1024C0002E970FB6F894DEBF0FBECDBF8C017E876E
:1024D0006D8740E0BC01CE010D960E94790281110A
:1024E0003FC0CE010196D80155969C938E93549788
:1024F0006D857E85C8010E94130A81112FC0D80105
:102500005296ED91FC9153973097C9F0838584FDE5
:1025100002C085E025C084899589A0E0B0E0DC0197
:1025200099278827428D538D60E070E0842B952B8E
:10253000A62BB72BF80186839783A087B187D80194
:10254000ED91FC9111978681978113969C938E93C0
:10255000129760E070E0C8010E945B068430C9F207
:102560002E960FB6F894DEBF0FBECDBFDF91CF9190
:102570001F910F910895CF92DF92FF920F931F93B7
:10258000CF93DF93CDB7DEB72C970FB6F894DEBFAD
:102590000FBECDBF8C016B01FC0162817381808114
:1025A00091810E94EB04F82E81112DC0C114D10439
:1025B00031F460E070E0C8010E945B0623C0CE01E8
:1025C0000196F801958B848BC8010E948E0B843094
:1025D00031F4F80116861786108A118A02C081111B
:1025E00011C0B601C8010E945D0160E070E0C80141
:1025F0000E940F09843031F4F80116861786108A7C
:10260000118A01C0F82E8F2D2C960FB6F894DEBFDC
:102610000FBECDBFDF91CF911F910F91FF90DF9043
:10262000CF900895EF92FF921F93CF93DF93CDB792
:10263000DEB7A4970FB6F894DEBF0FBECDBF9CA344
:102640008BA37B0140E0BE016F5F7F4FCE0183967D
:102650000E947902182F811117C0CE0147969E8BD8
:102660008D8B6BA17CA146970E94130A182F8111B4
:102670000BC08B899C89892B31F0B701CE01019663
:102680000E945D0101C016E0812FA4960FB6F89458
:10269000DEBF0FBECDBFDF91CF911F91FF90EF90B6
:1026A00008952F923F924F925F926F927F928F92F6
:1026B0009F92AF92BF92CF92DF92EF92FF920F93D1
:1026C0001F93CF93DF9300D000D0CDB7DEB79A83AE
:1026D00089837C836B838A0140E0B801CE01019637
:1026E0000E947902282E8111BCC0D801ED91FC9185
:1026F00086859785A089B18986889788A08CB18CBA
:10270000B501A401425051096109710948175907DF
:102710006A077B0738F0EB81FC8180839183A28379
:10272000B3839FC0308021E0321237C092E0492E3F
:10273000512C612C712CC12CD12C7601B301A2013A
:10274000D8018D919C910E948F056F3FBFEF7B0751
:102750008B079B0709F46CC06130710581059105F9
:1027600009F469C0672B682B692B29F4EFEFCE1AA7
:10277000DE0AEE0AFE0AFFEF4F1A5F0A6F0A7F0AAF
:10278000D801ED91FC9186899789A08DB18D48166D
:1027900059066A067B0690F252C0468D578D60A19D
:1027A00071A1E0E0F0E080E090E0C12CD12C760156
:1027B0000097B1F42A013B01BFEF4B1A5B0A6B0A89
:1027C0007B0AF801808191810E94C601811136C087
:1027D000D801ED91FC91BE96B301A20180E092E098
:1027E000B2E03B120CC020813181232B29F42FEF62
:1027F000C21AD20AE20AF20A3296029711C0408047
:10280000518062807380AFE07A22452846284728AD
:1028100029F4BFEFCB1ADB0AEB0AFB0A34960497C4
:1028200021E0821A9108A108B10809F0C1CF07C0C0
:102830002224239404C082E0282E01C0282ED8012F
:10284000ED91FC91C686D786E08AF18AB3E03B120F
:1028500002C081E08583EB81FC81C082D182E2826B
:10286000F382822D0F900F900F900F90DF91CF91F8
:102870001F910F91FF90EF90DF90CF90BF90AF909E
:102880009F908F907F906F905F904F903F902F9090
:1028900008958F929F92AF92BF92FF920F931F93D2
:1028A000CF93DF93EC016A817B81888199810E94BB
:1028B000EB04F82E81116DC08C8187FD62C081FF11
:1028C00063C04E815F81688579858A849B84AC84EE
:1028D000BD84481559056A057B0508F05AC04A872A
:1028E0005B876C877D8780628C8388819981452B8B
:1028F000462B472B59F44E855F85688979890E945C
:10290000C30B1E861F86188A198A34C04A895B89C0
:102910006C897D890E948F054B015C018FEF8816C1
:102920009806A806B80699F1E1E08E169104A10474
:10293000B10411F482E020C088819981FC014689AC
:102940005789608D718D84169506A606B70608F521
:102950004A895B896C897D890FEF1FEF2FEF3FE07C
:102960000E942107811108C0B501A40188819981C5
:102970000E94C30B882369F09C8190689C83F82E89
:1029800008C092E0F92E05C087E0F82E02C081E071
:10299000F3CF8F2DDF91CF911F910F91FF90BF90BB
:1029A000AF909F908F900895CF92DF92EF92FF9219
:1029B000CF93DF93CDB7DEB7EA970FB6F894DEBFBB
:1029C0000FBECDBF9AAF89AF41E0BE01695E7F4FB8
:1029D000CE01C9960E947902811166C0CE018D9602
:1029E0009CA78BA769AD7AAD46970E94130A811107
:1029F0005BC0E9A5FAA5309709F453C0238520FDF3
:102A000052C0C488D588E12CF12C7601DD24CC2479
:102A1000828D938DA0E0B0E0C82AD92AEA2AFB2A49
:102A200024FF26C082E0C816D104E104F104F0F0CE
:102A300046E150E0BE01695E7F4FCE0101960E94E3
:102A40003E01CF82D886E986FA8662E070E0CE0148
:102A500001960E945B06811127C0CE0101960E945B
:102A60008E0B882301F1843019F01EC082E01CC057
:102A7000CE0147960E940307811116C0C114D104EC
:102A8000E104F10429F48F89988D0E9401050CC09E
:102A9000B701A6018F89988D0E94C30B811104C0D4
:102AA000F2CF86E001C087E0EA960FB6F894DEBF69
:102AB0000FBECDBFDF91CF91FF90EF90DF90CF9011
:102AC00008952F923F924F925F926F927F928F92D2
:102AD0009F92AF92BF92CF92DF92EF92FF920F93AD
:102AE0001F93CF93DF93CDB7DEB7AE970FB6F894B1
:102AF000DEBF0FBECDBF9CA38BA30E94FD1D2B018B
:102B00003C0141E0BE016F5F7F4FCE0183960E9482
:102B10007902082F8111F7C0CE0147969E8B8D8BCD
:102B20006BA17CA146970E94130A082F8823F1F01D
:102B3000843009F0E8C040E050E0BA0189819A8110
:102B40000E9440086B017C016115710581059105AA
:102B500079F0613071058105910561F402E0B701FA
:102B6000A60189819A810E94C30BCDC008E0CBC029
:102B700007E0F5CF6F3F7F4F8F4F9F4F09F4A3C002
:102B800040E050E0BA0189819A810E94C601082F75
:102B90008111E5CF09811A81B701A601C8010E9400
:102BA00067054B015C0118013EE2230E311CA801B0
:102BB000425D5D4F5EA34DA3F1018DA19EA18E17D5
:102BC0009F0711F01192F9CFC801C996F10120E2D7
:102BD0008E179F0711F02193FBCFEEE2D8019E964E
:102BE000EC939E9780E1D9968C93F801EC5BFF4FB4
:102BF00040825182628273823496D182C082970170
:102C0000442755272FA338A749A75AA736973183BA
:102C1000208340E250E0B101C801825B9F4F0E94D7
:102C20003E01F801E15BFF4F3EE230834F81588562
:102C300069857A85E981FA818081833061F482A196
:102C400093A1A4A1B5A1481759076A077B0719F4F6
:102C500040E050E0BA01D801A859BF4F11965C93EB
:102C60004E9316976D937C931281112371F1898194
:102C70009A81A50194012F5F3F4F4F4F5F4F2BA7C4
:102C80003CA74DA75EA7DC019A968D929D92AD92CE
:102C9000BC929D97E1E01496EC9340E050E0BA01BD
:102CA0000E94C601082F81115ACFF1012DA13EA12A
:102CB000E217F30711F01192F9CF11508BA49CA4E5
:102CC000ADA4BEA4D2CF01E04ACFCE0101960E94AE
:102CD000460B082F811143CFEB89FC8980E1838764
:102CE000468A578A608E718ED38EC28E4FA158A5A8
:102CF000558B448B89819A8121E0DC0114962C93B9
:102D00000E940105082F802FAE960FB6F894DEBF03
:102D10000FBECDBFDF91CF911F910F91FF90EF902C
:102D2000DF90CF90BF90AF909F908F907F906F90EB
:102D30005F904F903F902F9008950F931F93CF93E4
:102D4000DF93CDB7DEB7A4970FB6F894DEBF0FBE02
:102D5000CDBF9CA38BA3062F142F41E0BE016F5F54
:102D60007F4FCE0183960E94790281111EC0CE0151
:102D700047969E8B8D8B6BA17CA146970E94130A70
:102D8000811113C0EB89FC89309771F08385082786
:102D9000102317721827138789819A8121E0FC017B
:102DA00024830E94010501C086E0A4960FB6F89422
:102DB000DEBF0FBECDBFDF91CF911F910F91089560
:102DC0000F931F93CF93DF93CDB7DEB7A4970FB6C2
:102DD000F894DEBF0FBECDBF9CA38BA38B0141E057
:102DE000BE016F5F7F4FCE0183960E9479028111F1
:102DF00025C0CE0147969E8B8D8B6BA17CA14697FB
:102E00000E94130A81111AC0EB89FC893097A9F03E
:102E1000D80116968D919C911797978B868B149657
:102E20008D919C911597918F808F89819A8121E056
:102E3000FC0124830E94010501C086E0A4960FB620
:102E4000F894DEBF0FBECDBFDF91CF911F910F91E0
:102E50000895EF92FF920F931F93CF93DF93CDB717
:102E6000DEB7CF54D1090FB6F894DEBF0FBECDBF89
:102E700060969FAF8EAF60978B0141E0BE01695EA7
:102E80007F4FCE01825B9F4F0E9479028111C0C0AB
:102E90008F89988D9A838983CE018E5B9F4F9CA7E3
:102EA0008BA760966EAD7FAD60978B970E94130ADB
:102EB0008111AEC069A57AA56115710509F498C0A4
:102EC000655F7F4F45E150E0CE018D960E943E0147
:102ED00046E150E0BE01695E7F4FCE0101960E943F
:102EE0003E01B801CE0101960E94130A882309F41D
:102EF00081C0843009F08CC0CE0101960E94460B3F
:102F0000811186C0EB88FC8843E150E0BE01615D21
:102F10007F4FC7010D960E943E018DA58062F7018B
:102F20008387EF89F88D81E084834D8D5E8D6F8D71
:102F300078A18F819885A985BA85481759076A07AE
:102F40007B0709F45BC0F701838584FF57C00981C3
:102F50001A814489558960E070E0BA0155274427F9
:102F6000828D938DA0E0B0E0482B592B6A2B7B2BF0
:102F7000C8010E946705AB01BC01411551056105FF
:102F80007105D1F1C8010E94C601811141C0E981DA
:102F9000FA81DF01A15BBF4F8C918E3279F52081E0
:102FA0008F819885A985BA85233049F442A153A120
:102FB00064A175A184179507A607B70729F0582FB4
:102FC000492F3A2F2B2F04C050E040E030E020E0A2
:102FD000DF01A859BF4F852F942F11969C938E9394
:102FE0001697832F922F8D939C9381E0848306C044
:102FF00084E00EC088E00CC082E00AC0CE01479693
:103000000E940307811104C08F89988D0E940105D9
:10301000C15BDF4F0FB6F894DEBF0FBECDBFDF91AF
:10302000CF911F910F91FF90EF9008958F929F92F3
:10303000AF92BF92CF92DF92EF92FF920F931F93C6
:10304000CF93DF9300D000D0CDB7DEB77C014A012B
:103050008C01C12CD12C5B0181E0A81AB108CA14E3
:10306000DB04ECF49E012F5F3F4F41E050E0BE01D6
:103070006D5F7F4FC4010E94700D89819A81019715
:1030800071F48B818D3059F398012F5F3F4FF80118
:103090008083FFEFCF1ADF0A89018A3001F7F80138
:1030A0001082CD2811F0C70102C080E090E00F909F
:1030B0000F900F900F90DF91CF911F910F91FF9084
:1030C000EF90DF90CF90BF90AF909F908F9008953A
:1030D000FF920F931F93CF93DF9300D000D01F92E6
:1030E000CDB7DEB7F82E8B018AE0F81203C08DE071
:1030F0000E946818F9829E012C5F3F4F41E050E02A
:10310000BE016F5F7F4FC8010E94B00E8C819D8110
:10311000019719F08FEF9FEF02C081E090E00F90D0
:103120000F900F900F900F90DF91CF911F910F9103
:10313000FF900895EF92FF920F931F93CF93DF9329
:103140008C017B01EC01CE01801B910B2991222384
:1031500041F0B701822F0E9468188F3F2FEF92072E
:1031600091F7DF91CF911F910F91FF90EF9008950C
:103170002F923F924F925F926F927F928F929F9287
:10318000AF92BF92CF92DF92EF92FF920F931F9375
:10319000CF93DF93CDB7DEB768970FB6F894DEBF55
:1031A0000FBECDBF4DA45EA4EFA5F8A98E010F5CA4
:1031B0001F4F80E090E0A12CB12C9E012F5F3F4F6C
:1031C00019014F013FEF831A930A2081222309F44A
:1031D00026C1253261F0B201822F0E9468188F3F0C
:1031E0004FEF940709F413C181E090E010C1F18022
:1031F00050E39F01F51621F02E5F3F4FE12C05C0F3
:103200002D5F3F4FF280EE24E394F9011A8A198A68
:103210004F0120ED2F0D2A3080F44AE0A989BA89A8
:103220004A9F90014B9F300D11242F0D311DD90164
:10323000D097BA8BA98BF190EBCF2F2D2F7D2C340B
:1032400031F4BE2DB260EB2EF08031964F01FF209D
:1032500009F4E5C08FE98F0D8A3118F420EE2F0DA7
:1032600001C02F2D2F3479F138F42334C1F02434E8
:10327000A1F0223431F120C0253579F02835D1F084
:103280002335D1F47801F2E0EF0EF11CB201D80140
:103290008D919C910E949A180BC0AAE015C07801EC
:1032A000B2E0EB0EF11CB201F80180810E946818B7
:1032B0008701ADC0A0E108C0B2018F2D0E9468183F
:1032C000A6C0A2E001C0A8E0E1FE0AC0F80160814A
:1032D0007181828193810C5F1F4F2434F9F412C0F5
:1032E000A8014E5F5F4FF80160817181243431F491
:1032F000072E000C880B990B8A0104C080E090E037
:103300008A010CC097FF0AC09095809570956195D1
:103310007F4F8F4F9F4FFE2DF460EF2E3C8A2B8AFC
:10332000612C712C2A2F30E040E050E02D8B3E8B39
:103330004F8B588F2D893E894F89588D0E94031FCE
:10334000F62FE62FCA01B901FA3038F0A8E7FA16CD
:1033500011F0E7E001C0E7E2EF0F6301BFEFCB1A26
:10336000DB0AE05DAB89BC89ED93BC8BAB8B232B77
:10337000242B252B49F0B0E1CB16D10411F03601F6
:10338000D9CF2FE0622E712CE2FE09C0F101EC0DC5
:10339000FD1D2DE22083A3014E5F5F4F6A01E0FE19
:1033A00003C090E3792E02C080E2782EE988FA8883
:1033B00080E090E0CE14DF0468F461E0E61AF108E2
:1033C000019641F0B201872D0E9468185FEFA51A9F
:1033D000B50AF0CFC20CD31CB201F60182916F0185
:1033E0000E946818FFEFAF1ABF0A2C143D0429F0A1
:1033F0008F3F2FEF920781F70AC021E030E001965E
:1034000011F020E030E088279927821B930BA80E4B
:10341000B91E8F3F5FEF950711F0F401D2CE8F3FB9
:103420006FEF960709F0C50168960FB6F894DEBFF6
:103430000FBECDBFDF91CF911F910F91FF90EF9005
:10344000DF90CF90BF90AF909F908F907F906F90C4
:103450005F904F903F902F9008958EBD0DB407FE62
:10346000FDCF8EB5089582E380934D018FEF0E94CA
:103470002D1A8FEF0E942D1A8F3F21F090914D0150
:103480009111F7CF089540981CBC239A2B9824984B
:103490002C9A259A2D981CBC1DBC83E58CBD83E01D
:1034A00080934E0180914E018111FCCF08952A9A9C
:1034B0008FEF0C942D1A2A980E94331A0E94571AE3
:1034C000409A80910E01816080930E010895FF92D1
:1034D0000F931F93CF93DF93C82FD42F152F062F51
:1034E000F72E87FF09C040E050E0BA0187E70E944D
:1034F000671A823088F5CF772A9A2A980E94331A61
:103500008F3F31F58C2F0E942D1A8F2D0E942D1A7E
:10351000802F0E942D1A812F0E942D1A8D2F0E941C
:103520002D1AC034B9F0C83411F487E801C081E025
:103530000E942D1ACC3419F48FEF0E942D1ACAE084
:103540008FEF0E942D1A87FF07C0C150C9F704C032
:103550008FEF02C085E9F1CFDF91CF911F910F91DD
:10356000FF900895EF92FF920F931F93CF93DF93F5
:103570007C018B018AE080934E018FEF0E942D1A0F
:103580008F3F29F480914E018111F7CF22C08E3FE9
:10359000F9F4E7018FEF0E942D1A88838FEF0E94C4
:1035A0002D1A89838FEF0E942D1A8A838FEF0E9434
:1035B0002D1A8B830450110924960115110551F71A
:1035C0008FEF0E942D1A8FEF0E942D1A81E001C00B
:1035D00080E0DF91CF911F910F91FF90EF900895C0
:1035E0000F931F93CF93DF93EC018C011E5F8881B3
:1035F0000E942D1A89810E942D1A2296C017D10788
:10360000B1F78FEF0E942D1A8FEF0E942D1A8FEFC6
:103610000E942D1A982F9F7181E0953009F080E06B
:10362000DF91CF911F910F910895AF92BF92CF92EA
:10363000DF92EF92FF920F931F93CF93DF9300D00F
:1036400000D0CDB7DEB710910E0111FDA1C00E94D0
:10365000431A0AE08FEF0E942D1A0150D9F740E07B
:1036600050E0BA0180E40E94671A813009F07AC004
:1036700084E680934E014AEA51E060E070E088E41D
:103680000E94671A813009F043C0CE0101966C0197
:103690005E0195E0A90EB11C76018FEF0E942D1AF4
:1036A000F70181937F01AE16BF06B9F78B81813098
:1036B00009F058C08C818A3A09F054C080914E01BB
:1036C000811106C080914E01882309F44BC00AC0C5
:1036D00040E050E060E070E489EE0E94671A8111DA
:1036E000EDCFF0CF40E050E0BA018AE70E94671AC0
:1036F000811138C08FEF0E942D1AF60181936F015E
:10370000AE16BF06B9F7898186FD2EC004E02DC034
:1037100040E050E0BA0189EE0E94671A823020F042
:1037200001E091E4F92E03C002E089EEF82E8091C9
:103730004E01811105C080914E01882399F009C086
:1037400040E050E0BA018F2D0E94671A8111EFCF3F
:10375000F2CF40E052E060E070E080E50E94671A3E
:10376000882319F000E001C00CE000934C010E9496
:10377000571A002349F01E7F10930E011CBC81E0F4
:103780008DBD80E58CBD02C00E945B1A10910E01B8
:10379000812F0F900F900F900F90DF91CF911F917D
:1037A0000F91FF90EF90DF90CF90BF90AF90089572
:1037B000EF92FF920F931F93CF93DF93CDB7DEB7B6
:1037C00060970FB6F894DEBF0FBECDBF81114CC11C
:1037D0008A016530B1F4FA018081813079F048F0D6
:1037E000823009F043C188B180958170FA018183EC
:1037F0003FC140993DC10E945B1A3AC10E94431AE1
:1038000037C180910E01837009F034C1862F90E09A
:103810008F30910508F023C1FC01EC5CFF4F0C9444
:10382000251F2A980E94331A11E08F3F09F018C112
:103830008EC040E050E0BA0189E40E94671A8823F4
:1038400011F011E00DC160E170E0CE0101960E941F
:10385000B21A8823B1F399819295969596959370B3
:1038600089854A85913099F490E0982F8827242FF4
:1038700030E02F5F3F4F820F931FA0E0B0E0EAE0FF
:10388000880F991FAA1FBB1FEA95D1F75BC08295CD
:103890008695869583702885F4E02F9F90011124EA
:1038A000B901680F711DCB0101962F81237030E0A3
:1038B000322F2227330F330F820F931FA0E0B0E087
:1038C0002E81322F3F702B85221F2227221F230F8C
:1038D000342F3370330F230F27502DC080E092E038
:1038E000FA019183808333C0F0904C0140E050E0B6
:1038F000BA01F2FE2EC08DEC0E94671A8111A1CF91
:103900008FEF0E942D1A60E170E0CE0101960E94B7
:10391000B21A882309F495CF50E3F52E8FEF0E9459
:103920002D1AFA94F110FACF2B8522952F7080E191
:1039300090E0A0E0B0E004C0880F991FAA1FBB1F51
:103940002A95D2F7F80180839183A283B38310E094
:1039500087C089E40E94671A811173CF60E170E02B
:10396000CE0101960E94B21A882309F46ACF2B85F2
:103970008C85F1FE16C0881F8827881F90E001966D
:103980002F73820F911D820F911D2E8522952695F2
:1039900026952370215002C0880F991F2A95E2F7BF
:1039A0001CC0382F337082958695877090E0F8E0C0
:1039B0003F9F800D911D112401962C7730E03595A5
:1039C0002795359527952F5F3F4F829FA001839FB5
:1039D000500D929F500D1124CA01A0E0B0E0B2CF6B
:1039E00080914C01FA018083B2CF40E050E0BA01EF
:1039F00089E404C040E050E0BA018AE40E94671AFA
:103A000081111FCF60E170E023C040E050E0BA01B7
:103A10008AE70E94671A811114CF7801F4E0EF0E53
:103A2000F11C8FEF0E942D1AF80181938F01EE1582
:103A3000FF05B9F78CCF40E050E0BA018DEC0E9451
:103A4000671A8111FECE8FEF0E942D1A60E470E09C
:103A5000C8010E94B21A11E0882311F078CF14E057
:103A60000E94571A812F07C081E005C084E003C07F
:103A700080E001C083E060960FB6F894DEBF0FBE11
:103A8000CDBFDF91CF911F910F91FF90EF900895DF
:103A90000F93CF93DF93EB01BA01A90180910E013F
:103AA00080FD37C080914C0183FD07C089E0440F41
:103AB000551F661F771F8A95D1F7013071F481E594
:103AC0000E94671A81111EC060E072E0CE010E9460
:103AD000B21A8823B9F000E015C082E50E94671A87
:103AE000811110C060E072E0CE010E94B21A8823FA
:103AF00019F0DE5F0150B1F740E050E0BA018CE40C
:103B00000E94671A0E94571A81E0011103C080E0E9
:103B100001C083E0DF91CF910F910895CF92DF92A2
:103B2000EF92FF920F93CF93DF93EB0169017A013C
:103B300080910E0180FD51C080914C0183FD07C032
:103B400099E0CC0CDD1CEE1CFF1C9A95D1F70130DE
:103B5000B9F4B701A60188E50E94671A882311F01D
:103B600001E034C00E94331A8F3FD1F78EEF0E94DC
:103B70002D1ACE010E94F01A882341F100E026C0E0
:103B8000867039F0402F50E060E070E087ED0E94D1
:103B9000671AB701A60189E50E94671A811116C04C
:103BA0000E94331A8F3F59F48CEF0E942D1ACE01D8
:103BB0000E94F01A882319F0DE5F015089F70E94F5
:103BC000331A8F3F69F68DEF0E942D1A0E94571A03
:103BD00081E0011103C080E001C083E0DF91CF915B
:103BE0000F91FF90EF90DF90CF900895811103C067
:103BF00080910E01089581E0089560E070E081E217
:103C000090E0089580914E01882329F080914E0123
:103C1000815080934E0180914D01882329F080913D
:103C20004D01815080934D01089582E08093B8004A
:103C30008093B90085E08093BC00089585EA809365
:103C4000BC0008958093BB0084E88093BC00809101
:103C5000BC0087FFFCCF0895CF93DF93D62FC42FEE
:103C600094EA9093BC009091BC0097FFFCCF90E049
:103C7000880F991F0E94221E8D2F90E00E94221E05
:103C80008C2F90E00E94221E84E98093BC008FE379
:103C90009CE90197F1F700C00000DF91CF910895F2
:103CA00094EA9093BC009091BC0097FFFCCF880FE2
:103CB0008093BB0094E89093BC009091BC0097FF68
:103CC000FCCF6093BB0094E89093BC009091BC0043
:103CD00097FFFCCF94EA9093BC009091BC0097FFB3
:103CE000FCCF8F5F8093BB0084E88093BC00809101
:103CF000BC0087FFFCCF84E88093BC008091BC00AF
:103D000087FFFCCF8091BB0094E99093BC0008959D
:103D100085E98093BC00089584E084B987EC85B977
:103D200091E097B98EEF88B986E18AB98FEF8BB9A8
:103D300021E732E0309389002093880010928500BB
:103D4000109284008CE08093810080916F008260EB
:103D500080936F0080E1E5E3F1E0DF01282F1D9201
:103D60002A95E9F7E2E2F1E0DF011D928A95E9F791
:103D700027E630E03093C5002093C40088E18093AB
:103D8000C1008091C10080688093C10020E031E0D3
:103D9000309352012093510193BF0E94151E42E0BF
:103DA00067E388E60E942C1E40E16CE188E60E94F1
:103DB0002C1E48E16BE188E60E942C1E46E06AE07A
:103DC0008CE00E942C1E40E965EF86E70E942C1EC5
:103DD0007894CFE0D1E060ED86E70E94501E1F92FC
:103DE0008F93DF93CF930E94451F8FEF93EDA0E356
:103DF00081509040A040E1F700C000000F900F906C
:103E00000F900F90E8CFA1E21A2EAA1BBB1BFD0159
:103E10000DC0AA1FBB1FEE1FFF1FA217B307E407A9
:103E2000F50720F0A21BB30BE40BF50B661F771F01
:103E3000881F991F1A9469F76095709580959095E1
:103E40009B01AC01BD01CF010895EE0FFF1F05904E
:103E5000F491E02D09940E94361FA59F900DB49F08
:103E6000900DA49F800D911D11240895A29FB00173
:103E7000B39FC001A39F700D811D1124911DB29F9E
:103E8000700D811D1124911D0895A0E0B0E0EBE4B8
:103E9000FFE10C94FC21AE014B5F5F4FFA01619191
:103EA0007191AF0180915101909152010E945B1F6D
:103EB000E2E00C941822ABE0B0E0E1E6FFE10C9404
:103EC000EC216C017B018A01FC011782168283813F
:103ED00081FFCCC1CE0101963C01F6019381F7012F
:103EE00093FD859193FF81917F01882309F4BAC1E5
:103EF000853239F493FD859193FF81917F0185325D
:103F000029F4B60190E00E945221E7CF912C212C98
:103F1000312CFFE1F315D8F08B3279F038F4803290
:103F200079F08332A1F4232D20611DC08D3261F020
:103F3000803369F4232D216016C0832D8260382ED2
:103F4000E32DE4603E2E2AC0F32DF8601DC037FC3F
:103F50002DC020ED280F2A3040F08E32B9F436FC07
:103F600081C1232D2064322E19C036FE06C08AE09E
:103F7000989E200D1124922E11C0EAE02E9E200D55
:103F80001124222EF32DF0623F2E08C08C3621F42E
:103F9000832D8068382E02C0883641F4F70193FDE6
:103FA000859193FF81917F018111B3CF982F9F7DE0
:103FB0009554933028F40C5F1F4F9FE399830DC0F5
:103FC000833631F0833771F0833509F059C021C051
:103FD000F801808189830E5F1F4F88248394912C80
:103FE000530113C02801F2E04F0E511CF801A080CC
:103FF000B18036FE03C0692D70E002C06FEF7FEF25
:10400000C5010E9447214C018201F32DFF773F2E0D
:1040100016C0280122E0420E511CF801A080B18098
:1040200036FE03C0692D70E002C06FEF7FEFC5015F
:104030000E943C214C01F32DF0683F2E820133FC9D
:104040001BC0822D90E088169906B0F4B60180E27C
:1040500090E00E9452212A94F4CFF50137FC85911B
:1040600037FE81915F01B60190E00E94522121103C
:104070002A9421E0821A91088114910471F7E8C012
:10408000843611F0893641F5F80137FE07C06081AA
:104090007181828193810C5F1F4F08C060817181A3
:1040A000072E000C880B990B0E5F1F4FF32DFF7628
:1040B0003F2E97FF09C090958095709561957F4F31
:1040C0008F4F9F4FF0683F2E2AE030E0A3010E94FF
:1040D0008E21882E861845C0853731F4232D2F7EFA
:1040E000B22E2AE030E025C0932D997FB92E8F366D
:1040F000C1F018F4883579F0B5C0803719F08837E9
:1041000021F0B0C0E92FE061BE2EB4FE0DC0FB2D42
:10411000F460BF2E09C034FE0AC0292F2660B22EDB
:1041200006C028E030E005C020E130E002C020E118
:1041300032E0F801B7FE07C060817181828193810E
:104140000C5F1F4F06C06081718180E090E00E5FC0
:104150001F4FA3010E948E21882E8618FB2DFF770A
:104160003F2E36FE0DC0232D2E7FA22E891458F42B
:1041700034FE0BC032FC09C0832D8E7EA82E05C0F4
:10418000B82CA32C03C0B82C01C0B92CA4FE0FC0BE
:10419000FE01E80DF11D8081803321F49A2D997E76
:1041A000A92E09C0A2FE06C0B394B39404C08A2D00
:1041B000867809F0B394A3FC11C0A0FE06C0B21427
:1041C00088F4280C922C9B180EC0B21460F4B6012F
:1041D00080E290E00E945221B394F7CFB21418F419
:1041E0002B1802C0982C212CA4FE10C0B60180E32D
:1041F00090E00E945221A2FE17C0A1FC03C088E7F4
:1042000090E002C088E590E0B6010CC08A2D867867
:1042100059F0A1FE02C08BE201C080E2A7FC8DE252
:10422000B60190E00E945221891438F4B60180E36F
:1042300090E00E9452219A94F7CF8A94F301E80DFE
:10424000F11D8081B60190E00E9452218110F5CFCE
:10425000222009F442CEB60180E290E00E94522171
:104260002A94F6CFF6018681978102C08FEF9FEFE7
:104270002B96E2E10C940822FC01059061507040FD
:104280000110D8F7809590958E0F9F1F0895FC011F
:104290006150704001900110D8F7809590958E0F75
:1042A0009F1F08950F931F93CF93DF93FB012381EB
:1042B00021FD03C08FEF9FEF2CC022FF16C0468167
:1042C0005781248135814217530744F4A081B1817D
:1042D0009D012F5F3F4F318320838C93268137814F
:1042E0002F5F3F4F3783268314C08B01EC01FB0106
:1042F0000084F185E02D0995892BE1F6D801169609
:104300008D919C911797019617969C938E93169773
:10431000CE01DF91CF911F910F910895FA01AA2745
:10432000283051F1203181F1E8946F936E7F6E5FF8
:104330007F4F8F4F9F4FAF4FB1E03ED0B4E03CD0A6
:10434000670F781F891F9A1FA11D680F791F8A1F89
:10435000911DA11D6A0F711D811D911DA11D20D0F0
:1043600009F468943F912AE0269F11243019305DAA
:104370003193DEF6CF010895462F4770405D41939B
:10438000B3E00FD0C9F7F6CF462F4F70405D4A33E8
:1043900018F0495D31FD4052419302D0A9F7EACFB0
:1043A000B4E0A6959795879577956795BA95C9F7DF
:1043B00000976105710508959B01AC010A2E0694D2
:1043C0005795479537952795BA95C9F7620F731F8B
:1043D000841F951FA01D08952F923F924F925F92C8
:1043E0006F927F928F929F92AF92BF92CF92DF9205
:1043F000EF92FF920F931F93CF93DF93CDB7DEB76A
:10440000CA1BDB0B0FB6F894DEBF0FBECDBF0994FD
:104410002A88398848885F846E847D848C849B8454
:10442000AA84B984C884DF80EE80FD800C811B8162
:10443000AA81B981CE0FD11D0FB6F894DEBF0FBE91
:0A444000CDBFED010895F894FFCF01
:10444A000000000200000000310100000000012508
:10445A00780A00222A2B2C3A3B3C3D3E3F5B5D7C8E
:02446A007F00D1
:00000001FF
