:100000000C94C4000C94E1000C94E1000C94E10009
:100010000C94E1000C94E1000C94E1000C94E100DC
:100020000C94E1000C94E1000C94E1000C94E300CA
:100030000C94E1000C94E1000C94E1000C94E100BC
:100040000C94E1000C94E1000C9455010C94820195
:100050000C94E1000C94E1000C94E1000C94E1009C
:100060000C94B0010C94E1000C1D141D691D6F1D52
:100070002A1E2A1E2A1E2A1E2A1E2A1EEB1DF01DBB
:10008000F51D001E161E6E616E00696E6600004052
:100090007A10F35A00A0724E18090010A5D4E80097
:1000A00000E87648170000E40B54020000CA9A3BAF
:1000B000000000E1F5050000809698000000404235
:1000C0000F000000A08601000000102700000000C3
:1000D000E803000000006400000000000A000000C7
:1000E00000000100000000002C76D888DC674F0873
:1000F00023DFC1DFAE59E1B1B796E5E3E453C63A79
:10010000E651997696E8E6C28426EB898C9B62EDEF
:10011000407C6FFCEFBC9C9F40F2BAA56FA5F490A9
:10012000055A2AF75C936B6CF9676DC11BFCE0E420
:100130000D47FEF520E6B500D0ED902E0300943576
:1001400077050080841E080000204E0A000000C8C9
:100150000C333333330F986E12831141EF8D21141A
:10016000893BE65516CFFEE6DB18D1844B381BF7EA
:100170007C1D901DA4BBE424203284725E22810089
:10018000C9F124ECA1E53D2711241FBECFEFD8E033
:10019000DEBFCDBF12E0A0E0B1E0E2E4F6E602C0CF
:1001A00005900D92A831B107D9F723E0A8E1B2E09C
:1001B00001C01D92AD30B207E1F70E941C2A0C94D9
:1001C0001F330C9400001F920F920FB60F92112450
:1001D000AF92BF92CF92DF92EF92FF920F931F9355
:1001E0002F933F934F935F936F937F938F939F933F
:1001F000AF93BF93EF93FF930E94FD1E20912002C7
:1002000030912102409122025091230260912402F8
:10021000709125028091260290912702A1E00E9410
:10022000F52E209320023093210240932202509316
:1002300023026093240270932502809326029093F8
:100240002702EAE0AE2EB12CC12CD12CE12CF12CEE
:1002500000E010E00E94852D2093BD023093BE0285
:100260004093BF025093C0026093C1027093C202D8
:100270008093C3029093C402FF91EF91BF91AF911D
:100280009F918F917F916F915F914F913F912F91AE
:100290001F910F91FF90EF90DF90CF90BF90AF90A4
:1002A0000F900FBE0F901F9018951F920F920FB6D0
:1002B0000F9211248F939F93EF93FF939091C60019
:1002C000809168028031A8F4809168028F5F8093EA
:1002D0006802E091660281E08E0F80936602F0E092
:1002E000EA59FD4F938380916602803110F010929D
:1002F0006602FF91EF919F918F910F900FBE0F902B
:100300001F9018951F920F920FB60F9211248F9382
:10031000EF93FF93E0917A0281E08E0F80937A024F
:10032000F0E0E758FD4F83818093C60080917A0208
:10033000803110F010927A0280917B02815080937C
:100340007B02811105C08091C1008F7D8093C10027
:10035000FF91EF918F910F900FBE0F901F90189506
:100360001F920F920FB60F9211242F933F934F932A
:100370005F936F937F938F939F93AF93BF93EF930D
:10038000FF9380912802909129020E947D239093EF
:10039000290280932802FF91EF91BF91AF919F9125
:1003A0008F917F916F915F914F913F912F910F901E
:1003B0000FBE0F901F90189580916802089580914C
:1003C00068028823E1F38091C1008F778093C10098
:1003D000E091670281E08E0F80936702F0E0EA59B6
:1003E000FD4F838190916702903110F01092670267
:1003F000909168029150909368029091C10090682A
:100400009093C100089590917B0280E1891B08952B
:1004100090917B029031E1F39091C1009F7D909388
:10042000C10090917B029F5F90937B02E0917902E3
:1004300091E09E0F90937902F0E0E758FD4F83839F
:1004400080917902803110F0109279028091C10080
:1004500080628093C1000895CF93C82F0E94080244
:10046000CA3019F48DE00E94080280E090E0CF913C
:100470000895CF93DF93DB01FC019A01223031050F
:1004800038F0CD91DD91C193D19322503109F6CF4F
:100490009A012E7FFC01E20FF31FDB01A20FB31FB5
:1004A0004217530711F02C912083DF91CF910895CB
:1004B0000F931F93CF93DF938B01FB013996DC01E0
:1004C0001E964D915D916D917C915197452B462BD8
:1004D000472B09F450C052960D90BC91A02D9D0160
:1004E000A8014F5E5F4FE90189919E01803261F062
:1004F000853009F485EE3196BF0161507109EB0139
:100500008883E417F50779F718968C91189780324D
:10051000B9F08EE280839D01285F3F4FAF014C5FB1
:100520005F4F3196E90189919E01803249F0319601
:10053000BF0161507109EB018883E417F50791F75A
:100540001B968C911B97E80188875C964D915D9175
:100550006D917C915F97488359836A837B8358961A
:100560008D919C9159979D838C8356968D919C91EA
:1005700057979F838E831082DF91CF911F910F91A8
:1005800008954F925F926F927F92AF92BF92CF92F7
:10059000DF92EF92FF920F931F93CF93DF93FC01B3
:1005A00042A453A464A475A44416550666067706AF
:1005B00011F480E050C06A017B01EC01848181115B
:1005C00006C0C114D104E104F10499F335C05F0100
:1005D000FEE2AF0EB11C01E0A3019201B5018981D9
:1005E0000E94891E882311F081E035C01C824E8D47
:1005F0005F8D68A179A18A8D9B8DAC8DBD8D840F97
:10060000951FA61FB71F481659066A067B06C8F62F
:100610001B811230B0F28A8D9B8DAC8DBD8D480E42
:10062000591E6A1E7B1E01E0A3019201B50189815A
:100630000E94891E1150EDCF01E0A7019601BE0175
:10064000625D7F4F89810E94431E8111CDCFCAA672
:10065000DBA6ECA6FDA6DF91CF911F910F91FF9035
:10066000EF90DF90CF90BF90AF907F906F905F90B2
:100670004F9008950F93CF93DF93EC019A01AB0154
:10068000BC01625D7F4F01E089810E94431E8111A0
:1006900022C0FE01E45DFD4F8081918185359A4A3B
:1006A000E1F4E85CF14080819181A281B381BB27B4
:1006B00086349144A445B10591F0C058DF4F48817C
:1006C00059816A817B81772781E0463451446445B2
:1006D000710531F404C083E003C082E001C080E012
:1006E000DF91CF910F9108952F923F924F925F9299
:1006F0006F927F928F929F92AF92BF92CF92DF9232
:10070000EF92FF920F931F93CF93DF93CDB7DEB796
:100710002E970FB6F894DEBF0FBECDBFDC01ED9172
:10072000FC91208130E0205331092A30310560F0FE
:10073000E0918E02F0918F02FE87ED87DB01ED9351
:10074000FC93EF2B61F408C251815A3389F732963A
:10075000DC01ED93FC93232B59F38BE01EC2142F85
:10076000ED85FE858081882361F081810E94F11EE4
:1007700080FD07C0112309F4F1C182FFEFC18AE0B7
:100780000CC2AD85BE851C9211961C9280E00E9421
:10079000101C80FDE5C1112311F082FDF0CF40E077
:1007A00050E0BA018D859E850E943A038130C1F4E4
:1007B000ED85FE85E051FE4F8081811102C08DE004
:1007C000ECC1ED85FE85EC50FE4F4080518062808B
:1007D0007380B301A2018D859E850E943A0303C0F8
:1007E000412C512C3201833009F4BCC18111E7CF77
:1007F000ED85FE8581AD92AD8115924001F7ED85C5
:10080000FE85EC5BFF4F80809180A12CB12C811480
:100810009104A104B10441F4ED85FE85EE5AFF4F29
:1008200080809180A280B380AD85BE855A968D92DE
:100830009D92AD92BC925D97DE964C91DE97139699
:100840004C9313978FEF840F823008F0B8CFDB966C
:100850001C91DB9712961C931297112309F4AFCFCA
:10086000812F90E09C012150310982239323892B11
:1008700009F0A5CFFD01FF962080318019963C92AA
:100880002E921897C1018F709927892B09F097CF65
:100890003296C080D180E12CF12CC114D104E10446
:1008A000F10429F43D96C080D180E280F380AD85CB
:1008B000BE85DC96ED91FC91DD97309709F47FCFF2
:1008C000A42FB0E0A50194010E94722D6D837E8358
:1008D0008F8398879F0140E050E029873A874B87B4
:1008E0005C87C10164E0969587956A95E1F7280FCA
:1008F000391F411D511DDA01C9012D813E814F81F2
:100900005885280F391F4A1F5B1F29833A834B8361
:100910005C83C216D306E406F50608F450CFC7017F
:10092000B601621B730B840B950B212F30E040E066
:1009300050E00E944A2D211531054105510509F469
:100940003ECF69017A0162E0C60ED11CE11CF11CA8
:1009500089819A81AB81BC81840D951DA61DB71D2F
:1009600089839A83AB83BC8389859A85AB85BC8553
:10097000840D951DA61DB71D263FEFE03E074105DE
:10098000510580F1263F3F4F4105510508F4ECC069
:10099000ED85FE85C68AD78AE08EF18E29813A815F
:1009A0004B815C8126A337A340A751A7868F978FE1
:1009B000A0A3B1A3232809F002CFE65AFF4F8081FC
:1009C0009181A281B381ED85FE8582A393A3A4A327
:1009D000B5A342E0CC0CDD1CEE1CFF1C4A95D1F700
:1009E00013E02BC011E0ED85FE85C68AD78AE08E24
:1009F000F18E29813A814B815C8126A337A340A7E0
:100A000051A7868F978FA0A3B1A3232809F4D7CE2F
:100A10002D813E814F815885820F931FA41FB51FE2
:100A2000ED85FE8582A393A3A4A3B5A3123009F09C
:100A30009DC0CC0CDD1CEE1CFF1C2FEFC20E21E074
:100A4000D21EE11CF11C89E0F694E794D794C79478
:100A50008A95D1F78C149D04AE04BF0408F4AFCE80
:100A60008FEF9FEFDC01ED85FE8586879787A08B52
:100A7000B18BDF011286138614861586133009F0B8
:100A800054C01582E25AFF4F80819181A3019201E7
:100A9000280F391F411D511DFD01228B338B448BC3
:100AA000558B01E0BD01625D7F4F81810E94431E35
:100AB00081113BC0ED85FE85E45DFD4F8081918114
:100AC00085359A4A91F5ED85FE8586A597A5A0A95D
:100AD000B1A982359245A146B14439F5ED85FE852F
:100AE000EE5EFD4F80819181A281B3818237924772
:100AF000A144B146D1F4ED85FE85E65EFD4F8081CF
:100B00009181A281B381ED85FE8582879387A48739
:100B1000B587EA5EFD4F80819181A281B381ED8529
:100B2000FE8586879787A08BB18BAD85BE851C938C
:100B300080918C0290918D02019690938D0280930A
:100B40008C0217969C938E931697FD0112A613A6FE
:100B500014A615A6148202C08CE01FC080E01DC040
:100B600083E01BC081E019C012E03DCFA3E0B0E0FC
:100B7000A70196010E94722DDC01CB01B695A795C5
:100B800097958795F1E0CF22DD24EE24FF24C80E4F
:100B9000D91EEA1EFB1E11E050CF2E960FB6F89418
:100BA000DEBF0FBECDBFDF91CF911F910F91FF90A0
:100BB000EF90DF90CF90BF90AF909F908F907F90FD
:100BC0006F905F904F903F902F900895009781F025
:100BD000FC012081222361F0268137812617370707
:100BE00039F481810E94F11E80FD04C080E00895E7
:100BF00089E0089583E008950F93CF93DF93EC018C
:100C000040E050E0BA010E94C102982F811155C006
:100C10008881833009F047C08D81882309F443C05F
:100C20001AA61BA61CA61DA6BE01625D7F4FFB0176
:100C3000CE01825D9D4FE817F90711F01192FBCFAD
:100C400085E59AEAFE01E45DFD4F9183808382E5AC
:100C500092E5A1E6B1E48EA79FA7A8ABB9AB82E766
:100C600092E7A1E4B1E67A9780839183A283B3836C
:100C70008E859F85A889B989349680839183A283C4
:100C8000B3838A859B85AC85BD85349680839183AB
:100C9000A283B3832A893B894C895D8901E08981DC
:100CA0000E94891E1D8240E050E060E089810E9420
:100CB000D31C91E0811101C090E0892FDF91CF9189
:100CC0000F9108950F931F93FC019A01AB012250DD
:100CD00031094109510986899789A08DB18D029703
:100CE000A109B109281739074A075B0768F4A281EF
:100CF000B0E00E94722D06A117A120A531A5600FBA
:100D0000711F821F931F03C060E070E0CB011F9131
:100D10000F910895AF92BF92CF92DF92EF92FF9220
:100D20000F931F93CF93DF934230510561057105F7
:100D300008F4A9C0FC0106891789208D318D401760
:100D400051076207730708F09EC06A017B01EC013E
:100D50008081823009F448C0833009F468C0813052
:100D600009F096C05A01B694A794AC0CBD1CC501FD
:100D7000892F992786954E8D5F8D68A179A1480F9F
:100D8000591F611D711DCE010E94C102811180C0D9
:100D9000F501F170EC0FFD1F16A5FFEFAF1ABF0AAA
:100DA000C501892F992786954E8D5F8D68A179A100
:100DB000480F591F611D711DCE010E94C102811192
:100DC00067C0C5019170FE01E80FF91F86A5612F6C
:100DD00070E0782BC0FE06C054E0769567955A9572
:100DE000E1F722C07F7020C077276F2D5E2D4D2D3B
:100DF000868D978DA0A1B1A1480F591F6A1F7B1F37
:100E0000CF010E94C102811143C0CC0CDD1CEE1C3D
:100E1000FF1CE894C0F881E0D822EE24FF24FE01F4
:100E2000EC0DFD1D66A577A580E090E034C0868DB1
:100E3000978DA0A1B1A127E0769567955795479525
:100E40002A95D1F7480F591F6A1F7B1FCF010E94B7
:100E5000C10281111DC082E0CC0CDD1CEE1CFF1C08
:100E60008A95D1F7ECEFCE22E1E0DE22EE24FF24DA
:100E7000FE01EC0DFD1D86A597A5A0A9B1A9BC0199
:100E8000CD019F7008C061E070E080E090E003C099
:100E90006FEF7FEFCB01DF91CF911F910F91FF900B
:100EA000EF90DF90CF90BF90AF900895EF92FF92B8
:100EB0000F931F93CF93DF938C01EB01DC01159609
:100EC0007C936E93149716964D915D916D917C91E4
:100ED0001997413051056105710511F482E087C011
:100EE000DC01ED91FC9186899789A08DB18D481721
:100EF00059076A077B0790F7411551056105710590
:100F000019F58081833049F442A153A164A175A1F0
:100F10004115510561057105B9F4D8011A961D9264
:100F20001D921D921C921D9780859185C817D90727
:100F3000A8F682A193A1A4A1B5A19E0154E0369583
:100F400027955A95E1F739C0E280F0E1EF9E7001F4
:100F50001124F80180819181CE15DF0500F10E94F6
:100F60008A06AB01BC014F3F8FEF5807680778072F
:100F7000E9F1423051056105710508F4AFCFD801A0
:100F8000ED91FC9186899789A08DB18D48175907FD
:100F90006A077B0708F0A2CFCE19DF09DACF4287B4
:100FA0005387648775870E9462069E0144E03695E8
:100FB00027954A95E1F7DC01CB01820F931FA11D14
:100FC000B11DF80186879787A08BB18B80819181B5
:100FD0008E96CF70DD2725E0CC0FDD1F2A95E1F737
:100FE000C80FD91FD38BC28B80E001C081E0DF9195
:100FF000CF911F910F91FF90EF900895CF93DF93C2
:10100000EC016C817D810E945607811112C04E85D2
:101010005F8568897989888199810E94C1028111DF
:1010200008C0EA89FB8995EE9083E881F98191E017
:101030009483DF91CF9108954F925F926F927F9248
:10104000AF92BF92CF92DF92EF92FF920F931F93D6
:10105000CF93DF9300D000D000D0CDB7DEB74230C1
:1010600051056105710508F4F0C0DC015696CD907C
:10107000DD90ED90FC9059974C155D056E057F0550
:1010800008F0E3C0280139016A017B019E838D834A
:10109000FC018081823009F46FC0833009F493C071
:1010A000813009F0CBC05A01B694A794AC0CBD1C9A
:1010B000C501892F99278695468D578D60A171A10D
:1010C000480F591F611D711DCF010E94C10281117E
:1010D000B6C0F501F1702D813E81E20FF31FD701FB
:1010E000C60181709927AA27BB2789839A83AB837E
:1010F000BC83C0FE09C086A5282F2F70A0E14A9EA0
:10110000C0011124822B01C0842D86A7BFEFAB1A2A
:10111000BB0A81E0ED81FE818483C501892F992777
:101120008695468D578D60A171A1480F591F611D8D
:10113000711DCF010E94C102811181C0F1E0BF2267
:10114000ED81FE81EA0DFB1D29813A814B815C8195
:10115000232B242B252B41F054E07694679457944D
:1011600047945A95D1F706C006A5007F952D9F702C
:10117000402E492A46A663C077276F2D5E2D4D2D40
:10118000ED81FE81868D978DA0A1B1A1480F591FD9
:101190006A1F7B1FCF010E94C102811150C0CC0C7D
:1011A000DD1CEE1CFF1CE894C0F8F1E0DF22EE2409
:1011B000FF242EE2C20ED11CED81FE81EC0DFD1D3F
:1011C000518240823CC0ED81FE81868D978DA0A129
:1011D000B1A127E076956795579547952A95D1F760
:1011E000480F591F6A1F7B1FCF010E94C102811146
:1011F00026C092E0CC0CDD1CEE1CFF1C9A95D1F7AA
:10120000FCEFCF22F1E0DF22EE24FF242EE2C20E1B
:10121000D11CED81FE81EC0DFD1D0081118122812B
:101220003381002711272227307F402A512A622A42
:10123000732A408251826282738201C082E091E00F
:10124000AD81BE8114969C9301C082E026960FB6B4
:10125000F894DEBF0FBECDBFDF91CF911F910F91EC
:10126000FF90EF90DF90CF90BF90AF907F906F9006
:101270005F904F9008954F925F926F927F928F92FE
:101280009F92AF92BF92CF92DF92EF92FF920F9315
:101290001F93CF93DF93EC012A013B0141155105C8
:1012A0006105710599F48A849B84AC84BD848114A2
:1012B0009104A104B10409F18E899F89A88DB98D8B
:1012C00088169906AA06BB06E0F017C00E948A0697
:1012D0006B017C01623071058105910508F482C0C3
:1012E0008E899F89A88DB98DC816D906EA06FB0696
:1012F00008F47DC05301420104C0812C912C54019B
:101300008394750164018FEFC81AD80AE80AF80AB5
:101310008E899F89A88DB98DC816D906EA06FB0665
:1013200068F022E082169104A104B10410F460E098
:101330005AC082E0C82ED12CE12CF12CB701A601B5
:10134000CE010E948A066115710581059105B1F0F3
:101350006F3F2FEF72078207920729F46FEF7FEF3D
:101360008FEF9FEF46C06130710581059105D1F186
:10137000C814D904EA04FB0431F6D9CF0FEF1FEFEC
:101380002FEF3FE0B701A601CE010E941C0881119A
:1013900026C04114510461047104C1F4CA86DB867D
:1013A000EC86FD868E859F85A889B9898F3F2FEFB2
:1013B0009207A207B207D9F00197A109B1098E8758
:1013C0009F87A88BB98B81E08D8311C0970186011F
:1013D000B301A201CE010E941C088823F9F28130DA
:1013E00009F4BCCF61E070E080E090E002C0B6019B
:1013F000C701DF91CF911F910F91FF90EF90DF9088
:10140000CF90BF90AF909F908F907F906F905F90A4
:101410004F9008958F929F92AF92BF92CF92DF929A
:10142000EF92FF920F931F93CF93DF93EC016B0129
:101430000C811D810F5F1F4F11F484E0E2C04E85C7
:101440005F85688979894115510561057105A9F3A1
:1014500078018FE0E822FF24E114F10409F0C0C014
:101460004F5F5F4F6F4F7F4F4E875F87688B798BE2
:101470004A855B856C857D8588819981FC01411554
:1014800051056105710531F48085918508171907AB
:10149000A0F6A6C0228130E021503109F801A4E075
:1014A000F695E795AA95E1F72E233F23232B09F024
:1014B00097C00E948A064B015C016230710581056C
:1014C000910510F482E09DC08FEF88169806A8065B
:1014D000B80611F481E095C088819981FC014689A4
:1014E0005789608D718D84169506A606B70608F497
:1014F00069C0CD2809F4A1CF4A855B856C857D85BF
:101500000E943B094B015C01611571058105910544
:1015100009F476C0613071058105910599F28FEF6C
:1015200088169806A806B806A9F240E050E0BA016D
:10153000888199810E94C1028111CCCF88819981D3
:10154000FC01BE96825D9D4F8E179F0711F0119290
:10155000FBCFC880D980B501A401C6010E946206F4
:10156000F60162A773A784A795A7D12CCC24C394B6
:10157000E881F9818281D816C8F4C48240E050E045
:10158000BA01888199810E94C1028111A3CFE881AB
:10159000F98182A593A5A4A5B5A50196A11DB11DAC
:1015A00082A793A7A4A7B5A7D394E2CF82A593A5BA
:1015B000A4A5B5A58D199109A109B10982A793A781
:1015C000A4A7B5A78A869B86AC86BD86B501A40173
:1015D000888199810E9462066E877F87888B998BAC
:1015E0001D830C83888199818E9625E0EE0CFF1C6B
:1015F0002A95E1F7E80EF91EFB8AEA8A80E001C02D
:1016000087E0DF91CF911F910F91FF90EF90DF90D6
:10161000CF90BF90AF909F908F900895AF92BF9260
:10162000CF92DF92EF92FF920F931F93CF93DF93AE
:10163000EC018B01FB0180818F3211F08C3511F4AC
:101640000F5F1F4F1E821F8218861986F801808146
:10165000803228F030E2F32E45E0E42E5FC060E0F7
:1016600070E0CE010E9456071B8A1A8AFFC080E0F4
:1016700090E060E070E048E050E0A12C9B012F5F1B
:101680003F4FD801A60FB71FBC90A0E2AB1508F4DE
:1016900050C0020F131FA0E2AB1508F095C020E068
:1016A000892B09F4C0C08081853E09F4E08248306E
:1016B000510511F4AA0CAA0C8A2D8370813009F40B
:1016C00020618A2D8C70843009F42860238760E0C3
:1016D00070E0CE010E945607882309F477C0EC8998
:1016E000FD899385811199C092FDC0C0EA89FB896B
:1016F000838584FF96C084899589A0E0B0E0DC01F1
:1017000099278827428D538D60E070E0842B952BBC
:10171000A62BB72B8E839F83A887B987EC89FD8979
:10172000DF01CF010B96A817B90709F4A0CFFD92EE
:10173000FACFAFE2BA1609F4ACCFACE5BA1609F4A9
:10174000A8CFAEE2BA1609F487C08417950708F04F
:101750006AC0B7FE03C0AA2DA360AA2EAFE7AB0DE7
:10176000AF3120F0A0E2AB0DAD3110F56E5F7F4FD1
:10177000D801A20FB31F2C9130EC320F3F3328F069
:1017800030E8320F3D3708F04EC0DA0111978A1762
:101790009B0708F048C0DF01A80FB91FBC92DC010D
:1017A0001196AE0FBF1F02962C939B01B90166CF15
:1017B000CB2CD12CA8E0B2E06D916623B1F170E0A2
:1017C000C616D706C9F72FC024E06ACF4E855F85BD
:1017D00068897989888199810E94C10281117FCFAE
:1017E000EA89FB8990819923B1F0938593FD0DC01F
:1017F000AC89BD89AF01455F5F4FE417F50709F478
:101800006ECF21919D912917C1F360E070E0CE0168
:101810000E940A0A61CF84E062CF843039F592FDDC
:1018200025C085E023C086E021C06FEB6B0D6A31D7
:1018300020F46A2D6260A62E09C06FE96B0D6A3133
:1018400028F4AA2DA160AA2E60EEB60EDF01A80F23
:10185000B91FBC920196AACF4830510521F7AA0CB6
:10186000AA0C88E090E04BE050E0A0CFDF91CF9150
:101870001F910F91FF90EF90DF90CF90BF90AF90AE
:1018800008951F93CF93DF93EC0160E070E00E9416
:101890005607182F811138C04E855F856889798970
:1018A000888199810E94C102182F81112DC0EA8977
:1018B000FB898081853E41F0882331F061E070E052
:1018C000CE010E940A0AE5CF4E855F856889798935
:1018D000888199810E94C102182F811115C08A89BF
:1018E0009B89FC019C01205E3F4FE217F30711F03A
:1018F0001192FBCF6C897D894BE050E00E94390248
:10190000E881F98181E08483812FDF91CF911F915C
:101910000895CF93DF93EC0184E04E855F8568895D
:1019200079894115510561057105E1F08881998139
:101930000E94C102811118C0EA89FB898081882335
:10194000C1F0853E39F08E3229F0838583FD02C0D7
:1019500080E011C060E070E0CE010E940A0A882396
:10196000E1F202C08823A1F31E861F86188A198A15
:1019700002C084E0F9CFDF91CF9108957F928F92DA
:101980009F92AF92BF92CF92DF92EF92FF920F930E
:101990001F93CF93DF93EC016A017B014230510525
:1019A0006105710510F482E04DC08E899F89A88D74
:1019B000B98D481759076A077B07A8F777247394EE
:1019C0008E899F89A88DB98DC816D906EA06FB06AF
:1019D00058F4B701A601CE010E948A064B015C01B2
:1019E000672B682B692B11F480E02CC081E08816EE
:1019F0009104A104B104B9F22FEF82169206A20657
:101A0000B206F9F000E010E09801B701A601CE019E
:101A10000E941C08811116C08E859F85A889B989EE
:101A20008F3F2FEF9207A207B20741F00196A11D49
:101A3000B11D8E879F87A88BB98B7D82750164014C
:101A4000BFCF81E0DF91CF911F910F91FF90EF9079
:101A5000DF90CF90BF90AF909F908F907F90089530
:101A6000811112C0E0918E02F0918F02309709F03F
:101A700010826115710511F0FB01108270938F02C5
:101A800060938E0280E008958BE008954F925F92FC
:101A90006F927F928F929F92AF92BF92DF92EF925E
:101AA000FF920F931F93CF93DF93CDB7DEB7A49729
:101AB0000FB6F894DEBF0FBECDBF7C017CA36BA335
:101AC000B42EDC011D921C92B42FBF71DB2E4E711F
:101AD000BE016F5F7F4FCE0183960E9474039E010B
:101AE000295E3F4F3E8B2D8B811106C06BA17CA1DF
:101AF000CE0101960E940E0B0B891C89811104C036
:101B00000115110509F486E09B2D9C7109F464C050
:101B1000882371F0843021F4CE0101960E94410C9B
:101B2000ED2DE860DE2E8111C0C00B891C8908C034
:101B3000B2FCB6C0D8011B968C91817109F0B4C07B
:101B4000D3FE5AC00E94F81EF80166877787808B03
:101B5000918B1386148E158E168E178E8488958819
:101B6000A12CB12CD40199278827828C938CA12C8D
:101B7000B12C882A992AAA2ABB2A138E128E158A7A
:101B8000148A89819A8121E0DC0114962C931497A0
:101B900081149104A104B10461F19A964D905D9075
:101BA0006D907C909D97B501A4010E94BE0C81119F
:101BB0007CC089819A81B1E08B1A9108A108B10893
:101BC000FC0182869386A486B586B301A2010E9499
:101BD000C102882361F069C0811167C0D8011B96DA
:101BE0008C9184FD5FC0B1FE02C080FD5DC0D3FE5C
:101BF00003C0BD2DB062DB2EE981FA8142A553A559
:101C000064A575A5D7015A964D935D936D937C930A
:101C10005D975F961C930E935E971496DC92D801A5
:101C200054968D919C915597A0E0B0E05C01992469
:101C30008824D8015A964D915C915B9760E070E0E2
:101C4000482959296A297B29D7011E964D935D930E
:101C50006D937C935197D8015C964D915D916D91F8
:101C60007C915F97D7011A964D935D936D937C930A
:101C70001D9716961D921D921D921C9219975696AD
:101C80001D921D921D921C9259971196FC93EE93F2
:101C90008681978113969C938E93129780E005C05E
:101CA00088E003C084E001C087E0A4960FB6F894F2
:101CB000DEBF0FBECDBFDF91CF911F910F91FF907F
:101CC000EF90DF90BF90AF909F908F907F906F903C
:101CD0005F904F9008952F923F924F925F926F9234
:101CE0007F928F929F92AF92BF92CF92DF92EF92AC
:101CF000FF920F931F93CF93DF93EC015B016A0177
:101D00001901F901118210826A817B818881998190
:101D10000E94E60581110CC18C8187FD06C180FF00
:101D200006C18A859B85AC85BD854E815F816885AE
:101D30007985841B950BA60BB70BA60160E070E0BC
:101D400084179507A607B70708F076C06C0174C022
:101D50004E815F8168857985DB01CA019170AA2770
:101D6000BB27892B8A2B8B2B09F0B1C088819981E5
:101D7000FC01228121502A013B01E9E0769467941D
:101D800057944794EA95D1F7122F142109F459C0BA
:101D9000888099804A895B896C897D89C4010E9409
:101DA0006206611571058105910509F46AC02B0170
:101DB0003C01410E511C611C711C7601EF2CFF246B
:101DC000E694E114F10409F47EC0F4018281212F2C
:101DD00030E0A9014E0D5F1D90E08417950718F4BF
:101DE0007C01E21AF30A0E2DA3019201B501F40160
:101DF00081810E94431E811180C0E881F981848124
:101E0000811143C0FE2CEE24FF0CAE0CBF1C8E8152
:101E10009F81A885B9858E0D9F1DA11DB11D8E8343
:101E20009F83A887B987F101808191818E0D9F1DC5
:101E300091838083CE18DF08C114D10409F088CFC4
:101E400072C0452B462B472B29F46E857F858889E8
:101E5000998906C04A895B896C897D890E948A06B6
:101E6000623071058105910560F06F3FFFEF7F07DC
:101E70008F079F0709F441C06A8B7B8B8C8B9D8BEE
:101E800087CF8C8180688C8350C082A593A5A4A540
:101E9000B5A584199509A609B709A70160E070E006
:101EA00084179507A607B70708F0ACCFBF01625D9E
:101EB0007F4F982F8827990F40E052E08A0D9B1D95
:101EC0000E9439029FCF4E8A5F8A688E798E8E81FA
:101ED0009F81917020E032E0281B390B76012C1590
:101EE0003D0508F479014E895F89688D798D888177
:101EF00099810E94C102882329F08C8180688C839B
:101F000081E016C08E819F81A885B9859170AA272E
:101F1000BB278E9668817981680F791FA701C5015B
:101F20000E94390272CF80E003C082E001C087E0E6
:101F3000DF91CF911F910F91FF90EF90DF90CF90A5
:101F4000BF90AF909F908F907F906F905F904F90D9
:101F50003F902F9008952F923F924F925F926F92F1
:101F60007F928F929F92AF92BF92CF92DF92EF9229
:101F7000FF920F931F93CF93DF93EC015B016A01F4
:101F80001901F901118210826A817B81888199810E
:101F90000E94E605811167C18C8187FD61C181FFC7
:101FA00061C18A859B85AC85BD85AC01BD014C0DA9
:101FB0005D1D611D711D481759076A077B0708F0F1
:101FC000B3C08E819F81A885B9854A855B856C8564
:101FD0007D85481759076A077B0708F03CC18A8747
:101FE0009B87AC87BD8737C14E815F8168857985C6
:101FF000DB01CA019170AA27BB27892B8A2B8B2B67
:1020000009F0F9C0E881F981228121502A013B01C0
:10201000A9E07694679457944794AA95D1F7122F24
:10202000142109F486C088819981FC0142A453A43B
:1020300064A475A44E895F89688D798D4416550610
:102040006606770609F4ABC0888099804A895B8967
:102050006C897D89C4010E94620661157105810544
:10206000910509F4A5C02B013C01410E511C611CD6
:10207000711C7601EF2CFF24E694E114F10409F4BD
:102080009BC0F4018281212F30E0A9014E0D5F1D1C
:1020900090E08417950718F47C01E21AF30A0E2DDC
:1020A000A3019201B501F40181810E94891E811171
:1020B000B8C088819981FC0142A553A564A575A586
:1020C00044195509660977092701612C712C4415BB
:1020D00055056605770570F4542F4427550FB50153
:1020E000640F751F40E052E08E960E943902E8812D
:1020F000F9811482FE2CEE24FF0CAE0CBF1C8E81E5
:102100009F81A885B9858E0D9F1DA11DB11D8E8350
:102110009F83A887B987F101808191818E0D9F1DD2
:1021200091838083CE18DF08C114D10409F05CCFFD
:1021300048CF452B462B472BA1F46E857F85888998
:1021400099896115710581059105C1F440E050E060
:10215000BA01CF010E943B096E877F87888B998BDC
:1021600007C04A895B896C897D89CF010E943B0940
:10217000611571058105910509F423CF6130710561
:1021800081059105A9F06F3FFFEF7F078F079F073C
:1021900009F447C06A8B7B8B8C8B9D8B44CF40E0CE
:1021A00050E0BA010E94C102882309F44DCF39C022
:1021B0008C8180688C8354C04E815F81688579856D
:1021C0008A859B85AC85BD85481759076A077B07BB
:1021D00070F040E050E0BA01C4010E94C1028111D8
:1021E00020C0E881F98142A653A664A675A64E8A4E
:1021F0005F8A688E798E8E819F81917020E032E0B7
:10220000281B390B76012C153D0508F479014E8900
:102210005F89688D798D888199810E94C1028823A8
:1022200029F08C8180688C8381E01DC08E819F8124
:10223000A885B9859170AA27BB278E9628813981F8
:10224000A701B501820F931F0E943902E881F9812D
:1022500031E0348352CF8C8180628C8380E003C074
:1022600082E001C087E0DF91CF911F910F91FF9035
:10227000EF90DF90CF90BF90AF909F908F907F9026
:102280006F905F904F903F902F9008950F931F9302
:10229000CF93DF93EC016A817B81888199810E94D1
:1022A000E605811139C09C8195FF36C04A8D5B8D52
:1022B0006C8D7D8D888199810E94C10281112CC015
:1022C0000E8D1F8DF8018385806283878A859B85AB
:1022D000AC85BD85848F958FA68FB78F8E859F85A2
:1022E000A889B989938F828FB58BA48B0E94F81E21
:1022F000F801668B778B808F918F8C818F7D8C839B
:10230000E881F98181E0848388819981DF91CF918F
:102310001F910F910C94FC05DF91CF911F910F91AC
:102320000895CF93DF93EC010E944611811102C002
:1023300019821882DF91CF9108954F925F926F9228
:102340007F928F929F92AF92BF92CF92DF92EF9245
:10235000FF920F931F93CF93DF9300D000D000D054
:10236000CDB7DEB79E838D836A017B01DC011296B7
:102370006D917C9113978D919C910E94E60581113E
:102380007DC1ED81FE81248127FD70C18285938509
:10239000A485B5858C159D05AE05BF0520F421FDEE
:1023A00002C06C017D01AD81BE8116964D905D909D
:1023B0006D907C901997FD01168217821086118608
:1023C000C114D104E104F10409F454C1AD81BE810A
:1023D0000D911C91F8018280912CA12CB12C39E037
:1023E000880C991CAA1CBB1C3A95D1F741145104C6
:1023F0006104710409F440C0F1E04F1A510861080A
:102400007108C701B6016150710981099109A501DF
:1024100094010E944A2D29833A834B835C83C30134
:10242000B201A50194010E944A2D89819A81AB8154
:10243000BC8182179307A407B507F0F08827992776
:10244000DC0188199909AA09BB09482259226A2284
:102450007B22AD81BE8116964D925D926D927C92EB
:102460001997C418D508E608F70852964D915D9162
:102470006D917C9155972EC0ED81FE8146855785E3
:10248000608971894115510561057105E9F440E0E4
:1024900050E0BA01C8010E943B09AB01BC014130C8
:1024A00051056105710509F49EC04F3FBFEF5B0701
:1024B0006B077B0709F462C0AD81BE811E964D9308
:1024C0005D936D937C935197ED81FE81428B538B8D
:1024D000648B758B411551056105710589F5C12C1A
:1024E000D12C760194C0423051056105710508F484
:1024F00051C0AD81BE81ED91FC9186899789A08DF7
:10250000B18D481759076A077B0708F043C0AD81B2
:10251000BE8152964D935D936D937C935597FD01CB
:1025200086819781A085B185880D991DAA1DBB1D47
:1025300086839783A087B187C818D908EA08FB0863
:102540008C149D04AE04BF0468F5AD81BE81149661
:102550002C9114978D919C9121FF17C00E943B09EB
:10256000AB01BC014115510561057105C9F04F3F33
:10257000BFEF5B076B077B0709F0B5CFED81FE81ED
:1025800084818068848381E079C00E948A06AB01DF
:10259000BC01EDCFED81FE8184818068848366C0BB
:1025A00075016401ED81FE8186819781A085B185E9
:1025B0008C0D9D1DAE1DBF1D86839783A087B1879F
:1025C000D701C6019170AA27BB27892B8A2B8B2B99
:1025D00009F485CF808191810E94620661157105A1
:1025E0008105910549F4AD81BE8114968C911497B3
:1025F000806814968C933AC029E0F694E794D794B7
:10260000C7942A95D1F7C60ED71EE81EF91EED8194
:10261000FE8186819781A085B185AC01BD01517095
:1026200066277727452B462B472B69F04689578924
:10263000608D718DC416D506E606F70621F0C68AB0
:10264000D78AE08EF18EED81FE81428553856485C7
:102650007585481759076A077B0750F48287938767
:10266000A487B58784818062848302C082E006C02B
:1026700080E004C080E090E0DC01E5CF26960FB654
:10268000F894DEBF0FBECDBFDF91CF911F910F91A8
:10269000FF90EF90DF90CF90BF90AF909F908F9082
:1026A0007F906F905F904F9008950F931F93CF93FB
:1026B000DF93CDB7DEB72E970FB6F894DEBF0FBE0F
:1026C000CDBF8C017E876D8740E0BC01CE010D96A9
:1026D0000E94740381113FC0CE010196D801559626
:1026E0009C938E9354976D857E85C8010E940E0B36
:1026F00081112FC0D8015296ED91FC9153973097DC
:10270000C9F0838584FD02C085E025C08489958950
:10271000A0E0B0E0DC0199278827428D538D60E06E
:1027200070E0842B952BA62BB72BF801868397831B
:10273000A087B187D801ED91FC911197868197818F
:1027400013969C938E93129760E070E0C8010E94EC
:1027500056078430C9F22E960FB6F894DEBF0FBE2E
:10276000CDBFDF91CF911F910F910895CF92DF924E
:10277000FF920F931F93CF93DF93CDB7DEB72C97C4
:102780000FB6F894DEBF0FBECDBF8C016B01FC010C
:1027900062817381808191810E94E605F82E81110A
:1027A0002DC0C114D10431F460E070E0C8010E9472
:1027B000560723C0CE010196F801958B848BC80182
:1027C0000E94890C843031F4F80116861786108A2D
:1027D000118A02C0811111C0B601C8010E945802BD
:1027E00060E070E0C8010E940A0A843031F4F80108
:1027F00016861786108A118A01C0F82E8F2D2C9606
:102800000FB6F894DEBF0FBECDBFDF91CF911F9101
:102810000F91FF90DF90CF900895EF92FF921F935A
:10282000CF93DF93CDB7DEB7A4970FB6F894DEBF92
:102830000FBECDBF9CA38BA37B0140E0BE016F5FA9
:102840007F4FCE0183960E947403182F811117C009
:10285000CE0147969E8B8D8B6BA17CA146970E94E3
:102860000E0B182F81110BC08B899C89892B31F09D
:10287000B701CE0101960E94580201C016E0812FD7
:10288000A4960FB6F894DEBF0FBECDBFDF91CF91F7
:102890001F91FF90EF9008952F923F924F925F9279
:1028A0006F927F928F929F92AF92BF92CF92DF9260
:1028B000EF92FF920F931F93CF93DF9300D000D03E
:1028C000CDB7DEB79A8389837C836B838A0140E02E
:1028D000B801CE0101960E947403282E8111BCC05C
:1028E000D801ED91FC9186859785A089B18986886C
:1028F0009788A08CB18CB501A4014250510961099F
:102900007109481759076A077B0738F0EB81FC818A
:1029100080839183A283B3839FC0308021E03212F1
:1029200037C092E0492E512C612C712CC12CD12C36
:102930007601B301A201D8018D919C910E948A0673
:102940006F3FBFEF7B078B079B0709F46CC06130BB
:1029500071058105910509F469C0672B682B692B06
:1029600029F4EFEFCE1ADE0AEE0AFE0AFFEF4F1A45
:102970005F0A6F0A7F0AD801ED91FC9186899789D9
:10298000A08DB18D481659066A067B0690F252C09A
:10299000468D578D60A171A1E0E0F0E080E090E00D
:1029A000C12CD12C76010097B1F42A013B01BFEF75
:1029B0004B1A5B0A6B0A7B0AF801808191810E94A5
:1029C000C102811136C0D801ED91FC91BE96B301D0
:1029D000A20180E092E0B2E03B120CC02081318184
:1029E000232B29F42FEFC21AD20AE20AF20A3296F6
:1029F000029711C04080518062807380AFE07A22DC
:102A000045284628472829F4BFEFCB1ADB0AEB0AF2
:102A1000FB0A3496049721E0821A9108A108B108B4
:102A200009F0C1CF07C02224239404C082E0282EDD
:102A300001C0282ED801ED91FC91C686D786E08A88
:102A4000F18AB3E03B1202C081E08583EB81FC8117
:102A5000C082D182E282F382822D0F900F900F907C
:102A60000F90DF91CF911F910F91FF90EF90DF902A
:102A7000CF90BF90AF909F908F907F906F905F901E
:102A80004F903F902F9008958F929F92AF92BF9258
:102A9000FF920F931F93CF93DF93EC016A817B81A9
:102AA000888199810E94E605F82E81116DC08C8184
:102AB00087FD62C081FF63C04E815F816885798533
:102AC0008A849B84AC84BD84481559056A057B05BE
:102AD00008F05AC04A875B876C877D8780628C8349
:102AE00088819981452B462B472B59F44E855F856C
:102AF000688979890E94BE0C1E861F86188A198AE9
:102B000034C04A895B896C897D890E948A064B01A1
:102B10005C018FEF88169806A806B80699F1E1E0E7
:102B20008E169104A104B10411F482E020C08881C2
:102B30009981FC0146895789608D718D84169506AF
:102B4000A606B70608F54A895B896C897D890FEF6F
:102B50001FEF2FEF3FE00E941C08811108C0B50154
:102B6000A401888199810E94BE0C882369F09C8110
:102B700090689C83F82E08C092E0F92E05C087E08B
:102B8000F82E02C081E0F3CF8F2DDF91CF911F91FE
:102B90000F91FF90BF90AF909F908F900895CF922C
:102BA000DF92EF92FF92CF93DF93CDB7DEB7EA9734
:102BB0000FB6F894DEBF0FBECDBF9AAF89AF41E02C
:102BC000BE01695E7F4FCE01C9960E9474038111D8
:102BD00066C0CE018D969CA78BA769AD7AAD46974E
:102BE0000E940E0B81115BC0E9A5FAA5309709F48C
:102BF00053C0238520FD52C0C488D588E12CF12C18
:102C00007601DD24CC24828D938DA0E0B0E0C82A2B
:102C1000D92AEA2AFB2A24FF26C082E0C816D1045A
:102C2000E104F104F0F046E150E0BE01695E7F4F3F
:102C3000CE0101960E943902CF82D886E986FA86B3
:102C400062E070E0CE0101960E945607811127C014
:102C5000CE0101960E94890C882301F1843019F07D
:102C60001EC082E01CC0CE0147960E94FE07811163
:102C700016C0C114D104E104F10429F48F89988DA0
:102C80000E94FC050CC0B701A6018F89988D0E9497
:102C9000BE0C811104C0F2CF86E001C087E0EA9645
:102CA0000FB6F894DEBF0FBECDBFDF91CF91FF907E
:102CB000EF90DF90CF9008952F923F924F925F92C6
:102CC0006F927F928F929F92AF92BF92CF92DF923C
:102CD000EF92FF920F931F93CF93DF93CDB7DEB7A1
:102CE000AE970FB6F894DEBF0FBECDBF9CA38BA3EB
:102CF0000E94F81E2B013C0141E0BE016F5F7F4F37
:102D0000CE0183960E947403082F8111F7C0CE0173
:102D100047969E8B8D8B6BA17CA146970E940E0BD4
:102D2000082F8823F1F0843009F0E8C040E050E03B
:102D3000BA0189819A810E943B096B017C0161156E
:102D400071058105910579F0613071058105910565
:102D500061F402E0B701A60189819A810E94BE0C4C
:102D6000CDC008E0CBC007E0F5CF6F3F7F4F8F4F5E
:102D70009F4F09F4A3C040E050E0BA0189819A81D5
:102D80000E94C102082F8111E5CF09811A81B70184
:102D9000A601C8010E9462064B015C0118013EE2D7
:102DA000230E311CA801425D5D4F5EA34DA3F101CE
:102DB0008DA19EA18E179F0711F01192F9CFC80126
:102DC000C996F10120E28E179F0711F02193FBCFE6
:102DD000EEE2D8019E96EC939E9780E1D9968C9373
:102DE000F801EC5BFF4F408251826282738234961D
:102DF000D182C0829701442755272FA338A749A71E
:102E00005AA736973183208340E250E0B101C801D0
:102E1000825B9F4F0E943902F801E15BFF4F3EE267
:102E200030834F81588569857A85E981FA8180816F
:102E3000833061F482A193A1A4A1B5A148175907D9
:102E40006A077B0719F440E050E0BA01D801A8599D
:102E5000BF4F11965C934E9316976D937C9312819E
:102E6000112371F189819A81A50194012F5F3F4F50
:102E70004F4F5F4F2BA73CA74DA75EA7DC019A964B
:102E80008D929D92AD92BC929D97E1E01496EC9349
:102E900040E050E0BA010E94C102082F81115ACFD0
:102EA000F1012DA13EA1E217F30711F01192F9CF24
:102EB00011508BA49CA4ADA4BEA4D2CF01E04ACFF4
:102EC000CE0101960E94410C082F811143CFEB895E
:102ED000FC8980E18387468A578A608E718ED38E03
:102EE000C28E4FA158A5558B448B89819A8121E0D0
:102EF000DC0114962C930E94FC05082F802FAE96BF
:102F00000FB6F894DEBF0FBECDBFDF91CF911F91FA
:102F10000F91FF90EF90DF90CF90BF90AF909F9078
:102F20008F907F906F905F904F903F902F9008957B
:102F30000F931F93CF93DF93CDB7DEB7A4970FB650
:102F4000F894DEBF0FBECDBF9CA38BA3062F142F1A
:102F500041E0BE016F5F7F4FCE0183960E947403F4
:102F600081111EC0CE0147969E8B8D8B6BA17CA1DB
:102F700046970E940E0B811113C0EB89FC89309794
:102F800071F083850827102317721827138789810A
:102F90009A8121E0FC0124830E94FC0501C086E0A7
:102FA000A4960FB6F894DEBF0FBECDBFDF91CF91D0
:102FB0001F910F9108950F931F93CF93DF93CDB778
:102FC000DEB7A4970FB6F894DEBF0FBECDBF9CA3AB
:102FD0008BA38B0141E0BE016F5F7F4FCE018396D3
:102FE0000E947403811125C0CE0147969E8B8D8B64
:102FF0006BA17CA146970E940E0B81111AC0EB8930
:10300000FC893097A9F0D80116968D919C9117975D
:10301000978B868B14968D919C911597918F808FAD
:1030200089819A8121E0FC0124830E94FC0501C072
:1030300086E0A4960FB6F894DEBF0FBECDBFDF9139
:10304000CF911F910F910895EF92FF920F931F93CD
:10305000CF93DF93CDB7DEB7CF54D1090FB6F89435
:10306000DEBF0FBECDBF60969FAF8EAF60978B0166
:1030700041E0BE01695E7F4FCE01825B9F4F0E949F
:1030800074038111C0C08F89988D9A838983CE0182
:103090008E5B9F4F9CA78BA760966EAD7FAD6097B0
:1030A0008B970E940E0B8111AEC069A57AA56115A0
:1030B000710509F498C0655F7F4F45E150E0CE018E
:1030C0008D960E94390246E150E0BE01695E7F4F55
:1030D000CE0101960E943902B801CE0101960E94EC
:1030E0000E0B882309F481C0843009F08CC0CE0116
:1030F00001960E94410C811186C0EB88FC8843E157
:1031000050E0BE01615D7F4FC7010D960E943902FC
:103110008DA58062F7018387EF89F88D81E0848334
:103120004D8D5E8D6F8D78A18F819885A985BA852B
:10313000481759076A077B0709F45BC0F7018385C5
:1031400084FF57C009811A814489558960E070E085
:10315000BA0155274427828D938DA0E0B0E0482B1B
:10316000592B6A2B7B2BC8010E946206AB01BC0164
:103170004115510561057105D1F1C8010E94C102D7
:10318000811141C0E981FA81DF01A15BBF4F8C91C0
:103190008E3279F520818F819885A985BA85233073
:1031A00049F442A153A164A175A184179507A6070C
:1031B000B70729F0582F492F3A2F2B2F04C050E082
:1031C00040E030E020E0DF01A859BF4F852F942F69
:1031D00011969C938E931697832F922F8D939C9389
:1031E00081E0848306C084E00EC088E00CC082E0E9
:1031F0000AC0CE0147960E94FE07811104C08F8944
:10320000988D0E94FC05C15BDF4F0FB6F894DEBFBE
:103210000FBECDBFDF91CF911F910F91FF90EF9027
:1032200008958F929F92AF92BF92CF92DF92EF92CA
:10323000FF920F931F93CF93DF9300D000D0CDB7B1
:10324000DEB77C014A018C01C12CD12C5B0181E0ED
:10325000A81AB108CA14DB04ECF49E012F5F3F4F9B
:1032600041E050E0BE016D5F7F4FC4010E946B0ED4
:1032700089819A81019771F48B818D3059F398017E
:103280002F5F3F4FF8018083FFEFCF1ADF0A8901DC
:103290008A3001F7F8011082CD2811F0C70102C071
:1032A00080E090E00F900F900F900F90DF91CF9102
:1032B0001F910F91FF90EF90DF90CF90BF90AF9054
:1032C0009F908F900895FF920F931F93CF93DF935A
:1032D00000D000D01F92CDB7DEB7F82E8B018AE068
:1032E000F81203C08DE00E946319F9829E012C5FE1
:1032F0003F4F41E050E0BE016F5F7F4FC8010E9429
:10330000AB0F8C819D81019719F08FEF9FEF02C069
:1033100081E090E00F900F900F900F900F90DF9151
:10332000CF911F910F91FF900895EF92FF920F930D
:103330001F93CF93DF938C017B01EC01CE01801BA7
:10334000910B2991222341F0B701822F0E9463192A
:103350008F3F2FEF920791F7DF91CF911F910F9140
:10336000FF90EF9008952F923F924F925F926F924D
:103370007F928F929F92AF92BF92CF92DF92EF9205
:10338000FF920F931F93CF93DF93CDB7DEB768976C
:103390000FB6F894DEBF0FBECDBF4DA45EA4EFA55F
:1033A000F8A98E010F5C1F4F80E090E0A12CB12C9A
:1033B0009E012F5F3F4F19014F013FEF831A930A80
:1033C0002081222309F426C1253261F0B201822F27
:1033D0000E9463198F3F4FEF940709F413C181E0F6
:1033E00090E010C1F18050E39F01F51621F02E5FAF
:1033F0003F4FE12C05C02D5F3F4FF280EE24E39458
:10340000F9011A8A198A4F0120ED2F0D2A3080F414
:103410004AE0A989BA894A9F90014B9F300D112437
:103420002F0D311DD901D097BA8BA98BF190EBCF1D
:103430002F2D2F7D2C3431F4BE2DB260EB2EF08079
:1034400031964F01FF2009F4E5C08FE98F0D8A31D5
:1034500018F420EE2F0D01C02F2D2F3479F138F400
:103460002334C1F02434A1F0223431F120C02535B9
:1034700079F02835D1F02335D1F47801F2E0EF0E60
:10348000F11CB201D8018D919C910E9495190BC03D
:10349000AAE015C07801B2E0EB0EF11CB201F80110
:1034A00080810E9463198701ADC0A0E108C0B2010C
:1034B0008F2D0E946319A6C0A2E001C0A8E0E1FE22
:1034C0000AC0F80160817181828193810C5F1F4F76
:1034D0002434F9F412C0A8014E5F5F4FF8016081F7
:1034E0007181243431F4072E000C880B990B8A016A
:1034F00004C080E090E08A010CC097FF0AC090955C
:103500008095709561957F4F8F4F9F4FFE2DF46092
:10351000EF2E3C8A2B8A612C712C2A2F30E040E060
:1035200050E02D8B3E8B4F8B588F2D893E894F89D4
:10353000588D0E944A2DF62FE62FCA01B901FA30A4
:1035400038F0A8E7FA1611F0E7E001C0E7E2EF0F64
:103550006301BFEFCB1ADB0AE05DAB89BC89ED9359
:10356000BC8BAB8B232B242B252B49F0B0E1CB1646
:10357000D10411F03601D9CF2FE0622E712CE2FE7A
:1035800009C0F101EC0DFD1D2DE22083A3014E5F6A
:103590005F4F6A01E0FE03C090E3792E02C080E233
:1035A000782EE988FA8880E090E0CE14DF0468F491
:1035B00061E0E61AF108019641F0B201872D0E9400
:1035C00063195FEFA51AB50AF0CFC20CD31CB20184
:1035D000F60182916F010E946319FFEFAF1ABF0AD3
:1035E0002C143D0429F08F3F2FEF920781F70AC07A
:1035F00021E030E0019611F020E030E088279927A3
:10360000821B930BA80EB91E8F3F5FEF950711F039
:10361000F401D2CE8F3F6FEF960709F0C50168968F
:103620000FB6F894DEBF0FBECDBFDF91CF911F91D3
:103630000F91FF90EF90DF90CF90BF90AF909F9051
:103640008F907F906F905F904F903F902F90089554
:103650008EBD0DB407FEFDCF8EB5089582E3809335
:1036600091028FEF0E94281B8FEF0E94281B8F3F33
:1036700021F0909191029111F7CF089540981CBCD0
:10368000239A2B9824982C9A259A2D981CBC1DBC03
:1036900083E58CBD83E08093920280919202811138
:1036A000FCCF08952A9A8FEF0C94281B2A980E9429
:1036B0002E1B0E94521B409A80910E0181608093C4
:1036C0000E010895FF920F931F93CF93DF93C82F9E
:1036D000D42F152F062FF72E87FF09C040E050E0AA
:1036E000BA0187E70E94621B823088F5CF772A9A59
:1036F0002A980E942E1B8F3F31F58C2F0E94281B89
:103700008F2D0E94281B802F0E94281B812F0E9432
:10371000281B8D2F0E94281BC034B9F0C83411F427
:1037200087E801C081E00E94281BCC3419F48FEF98
:103730000E94281BCAE08FEF0E94281B87FF07C04A
:10374000C150C9F704C08FEF02C085E9F1CFDF9106
:10375000CF911F910F91FF900895EF92FF920F93D9
:103760001F93CF93DF937C018B018AE080939202B9
:103770008FEF0E94281B8F3F29F4809192028111C4
:10378000F7CF22C08E3FF9F4E7018FEF0E94281B8C
:1037900088838FEF0E94281B89838FEF0E94281B4C
:1037A0008A838FEF0E94281B8B8304501109249673
:1037B0000115110551F78FEF0E94281B8FEF0E9412
:1037C000281B81E001C080E0DF91CF911F910F9114
:1037D000FF90EF9008950F931F93CF93DF93EC0129
:1037E0008C011E5F88810E94281B89810E94281BF2
:1037F0002296C017D107B1F78FEF0E94281B8FEFD9
:103800000E94281B8FEF0E94281B982F9F7181E038
:10381000953009F080E0DF91CF911F910F910895CD
:10382000AF92BF92CF92DF92EF92FF920F931F93CE
:10383000CF93DF9300D000D0CDB7DEB710910E014B
:1038400011FDA1C00E943E1B0AE08FEF0E94281BC1
:103850000150D9F740E050E0BA0180E40E94621BB9
:10386000813009F07AC084E6809392024AEA51E0FE
:1038700060E070E088E40E94621B813009F043C080
:10388000CE0101966C015E0195E0A90EB11C760196
:103890008FEF0E94281BF70181937F01AE16BF06B0
:1038A000B9F78B81813009F058C08C818A3A09F0D0
:1038B00054C080919202811106C0809192028823A7
:1038C00009F44BC00AC040E050E060E070E489EECB
:1038D0000E94621B8111EDCFF0CF40E050E0BA01B1
:1038E0008AE70E94621B811138C08FEF0E94281B5B
:1038F000F60181936F01AE16BF06B9F7898186FD87
:103900002EC004E02DC040E050E0BA0189EE0E94D4
:10391000621B823020F001E091E4F92E03C002E046
:1039200089EEF82E80919202811105C08091920259
:10393000882399F009C040E050E0BA018F2D0E9421
:10394000621B8111EFCFF2CF40E052E060E070E007
:1039500080E50E94621B882319F000E001C00CE0A2
:10396000009390020E94521B002349F01E7F109387
:103970000E011CBC81E08DBD80E58CBD02C00E94A3
:10398000561B10910E01812F0F900F900F900F90EA
:10399000DF91CF911F910F91FF90EF90DF90CF902B
:1039A000BF90AF900895EF92FF920F931F93CF9324
:1039B000DF93CDB7DEB760970FB6F894DEBF0FBECA
:1039C000CDBF81114CC18A016530B1F4FA0180810B
:1039D000813079F048F0823009F043C188B1809598
:1039E0008170FA0181833FC140993DC10E94561BFD
:1039F0003AC10E943E1B37C180910E01837009F0CD
:103A000034C1862F90E08F30910508F023C1FC016E
:103A1000EC5CFF4F0C946C2D2A980E942E1B11E039
:103A20008F3F09F018C18EC040E050E0BA0189E430
:103A30000E94621B882311F011E00DC160E170E06B
:103A4000CE0101960E94AD1B8823B1F39981929516
:103A500096959695937089854A85913099F490E072
:103A6000982F8827242F30E02F5F3F4F820F931F1E
:103A7000A0E0B0E0EAE0880F991FAA1FBB1FEA95FB
:103A8000D1F75BC082958695869583702885F4E092
:103A90002F9F90011124B901680F711DCB01019670
:103AA0002F81237030E0322F2227330F330F820F04
:103AB000931FA0E0B0E02E81322F3F702B85221F94
:103AC0002227221F230F342F3370330F230F275049
:103AD0002DC080E092E0FA019183808333C0F090A2
:103AE000900240E050E0BA01F2FE2EC08DEC0E9440
:103AF000621B8111A1CF8FEF0E94281B60E170E053
:103B0000CE0101960E94AD1B882309F495CF50E3A6
:103B1000F52E8FEF0E94281BFA94F110FACF2B8517
:103B200022952F7080E190E0A0E0B0E004C0880F03
:103B3000991FAA1FBB1F2A95D2F7F8018083918392
:103B4000A283B38310E087C089E40E94621B8111C5
:103B500073CF60E170E0CE0101960E94AD1B882317
:103B600009F46ACF2B858C85F1FE16C0881F882743
:103B7000881F90E001962F73820F911D820F911D77
:103B80002E852295269526952370215002C0880FF8
:103B9000991F2A95E2F71CC0382F337082958695BD
:103BA000877090E0F8E03F9F800D911D11240196F1
:103BB0002C7730E035952795359527952F5F3F4F2A
:103BC000829FA001839F500D929F500D1124CA0126
:103BD000A0E0B0E0B2CF80919002FA018083B2CF32
:103BE00040E050E0BA0189E404C040E050E0BA018E
:103BF0008AE40E94621B81111FCF60E170E023C044
:103C000040E050E0BA018AE70E94621B811114CFA4
:103C10007801F4E0EF0EF11C8FEF0E94281BF801F1
:103C200081938F01EE15FF05B9F78CCF40E050E08E
:103C3000BA018DEC0E94621B8111FECE8FEF0E94B3
:103C4000281B60E470E0C8010E94AD1B11E08823CE
:103C500011F078CF14E00E94521B812F07C081E041
:103C600005C084E003C080E001C083E060960FB629
:103C7000F894DEBF0FBECDBFDF91CF911F910F91A2
:103C8000FF90EF9008950F93CF93DF93EB01BA016C
:103C9000A90180910E0180FD37C08091900283FDC3
:103CA00007C089E0440F551F661F771F8A95D1F71B
:103CB000013071F481E50E94621B81111EC060E039
:103CC00072E0CE010E94AD1B8823B9F000E015C060
:103CD00082E50E94621B811110C060E072E0CE019B
:103CE0000E94AD1B882319F0DE5F0150B1F740E060
:103CF00050E0BA018CE40E94621B0E94521B81E0DA
:103D0000011103C080E001C083E0DF91CF910F91EA
:103D10000895CF92DF92EF92FF920F93CF93DF93AC
:103D2000EB0169017A0180910E0180FD51C0809103
:103D3000900283FD07C099E0CC0CDD1CEE1CFF1C3B
:103D40009A95D1F70130B9F4B701A60188E50E9430
:103D5000621B882311F001E034C00E942E1B8F3FAC
:103D6000D1F78EEF0E94281BCE010E94EB1B882307
:103D700041F100E026C0867039F0402F50E060E04D
:103D800070E087ED0E94621BB701A60189E50E94E1
:103D9000621B811116C00E942E1B8F3F59F48CEFBD
:103DA0000E94281BCE010E94EB1B882319F0DE5FC6
:103DB000015089F70E942E1B8F3F69F68DEF0E94FC
:103DC000281B0E94521B81E0011103C080E001C04A
:103DD00083E0DF91CF910F91FF90EF90DF90CF9034
:103DE0000895811103C080910E01089581E0089526
:103DF00060E070E081E290E0089580919202882373
:103E000029F08091920281508093920280919102D8
:103E1000882329F080919102815080939102089526
:103E200082E08093B8008093B90085E08093BC0065
:103E3000089585EA8093BC00089585E98093BC00CD
:103E400008958091BC0087FFFCCF80E090E008954A
:103E50008093BB0084E88093BC000E94211F21E076
:103E600030E0892B11F420E030E0C9010895FF9281
:103E70000F931F93CF93DF93182FF62E042F84EA0E
:103E80008093BC000E94211FEC01892BC1F4812F7B
:103E900090E0880F991F0E94281F8F2D90E00E94AC
:103EA000281F802F90E00E94281F84E98093BC0087
:103EB0008FE39CE90197F1F700C0000002C0C1E068
:103EC000D0E0CE01DF91CF911F910F91FF90089527
:103ED0000F931F93CF93DF93C82F062F14EA1093ED
:103EE000BC000E94211F892B11F080E02CC0CC0F58
:103EF000C093BB00D4E8D093BC000E94211F892B43
:103F0000A1F70093BB00D093BC000E94211F892B16
:103F100061F71093BC000E94211F892B31F7CF5FFE
:103F2000C093BB00D093BC000E94211F892BE9F6EF
:103F3000D093BC000E94211F892BB9F68091BB0051
:103F400094E99093BC00DF91CF911F910F91089558
:103F50008F929F92AF92BF92CF92DF92EF92FF9299
:103F60000F931F93CF93DF93C82F5B01042F790129
:103F700014EA1093BC000E94211F892B21F0CC244D
:103F8000C394D12C47C0CC0FC093BB00D4E8D093CE
:103F9000BC000E94211F892B91F70093BB00D09396
:103FA000BC000E94211F892B51F71093BC000E9476
:103FB000211F892B21F7CF5FC093BB00D093BC009A
:103FC0000E94211F6C01892BD1F68501C0E0D0E051
:103FD000570181E0A81AB10885EC982E94E8892E43
:103FE000CE15DF05A4F4CA15DB0519F48092BC00D8
:103FF00002C09092BC000E94211F892B09F0BFCF04
:104000008091BB00F80181938F012196E9CF84E96B
:104010008093BC00C601DF91CF911F910F91FF905B
:10402000EF90DF90CF90BF90AF909F908F900895CA
:10403000E5ECF2E0119222E0E33EF207D9F790932B
:10404000960280939502709394026093930260EDC0
:1040500086E70E94681F883591F446EB60EE86E79C
:104060000E94371F47E264EF86E70E94371F44E152
:1040700065EF86E70E94371F80E090E0089581E0B9
:1040800090E008952F923F924F925F926F927F92AD
:104090008F929F92AF92BF92CF92DF92EF92FF9258
:1040A0000F931F93CF93DF93CDB7DEB7A0970FB6D3
:1040B000F894DEBF0FBECDBF00919502109196021D
:1040C0001D870C87012B09F4E6C18091E3029091D2
:1040D000E402A091E502B091E6026C017D01FF0CC3
:1040E000CC08DC2C76019C01AD016C2D7C2D8C2D37
:1040F0009C2D345F41405109610971098109910981
:1041000028A3388F49835A836B837C838D839E8356
:1041100059016A017B018C010E94852D2F8338870C
:1041200049875A876B877D8B8E8B9F8B3091D4020A
:104130002091D302932F990F990B492F592F692F53
:10414000792F892F0E94852D0CE00E94B52E390110
:104150004A01562E472E382E292E3091D602209114
:10416000D502932F990F990BAF80B884C984DA8454
:10417000EB84FD880E891F89492F592F692F792FCC
:10418000892F0E94852D08E00E94CE2E53016401E4
:10419000E52CF42C032D122D0E94EC2E70588F4F1D
:1041A0009F4F2090D1023090D2025101C12CD12CCE
:1041B000E12CF12C00E010E00E94852D01E20E942C
:1041C000CE2E2A8B3B8B4C8B252E362E472E582EEF
:1041D000692EA0E00E940A2F09F45DC18091DD02E2
:1041E000282F30E03F872E878091DF02482F50E054
:1041F000598B488B3091DC022091DB02932F990F71
:10420000990BAF80B884C984DA84EB84FD880E8969
:104210001F89492F592F692F792F892F0E94852DAA
:104220002F83388749875A876B87772E4C013091C7
:10423000DA022091D902932F990F990BA8A0B88C7C
:10424000C980DA80EB80FC800D811E81492F592FB7
:10425000692F792F892F0E94852D01E10E94B52EAB
:10426000AF80B884C984DA84EB84F72C84010E947F
:10427000EC2E59016A017B01782E9B834091C60286
:1042800050E060E070E084E0440F551F661F771F28
:104290008A95D1F78091C70282958F70482B8091C3
:1042A000C50290E0A0E0B0E02CE0880F991FAA1FA3
:1042B000BB1F2A95D1F7482B592B6A2B7B2B80E00B
:1042C00090E0A0E1B0E0841B950BA60BB70B8C012E
:1042D0009D0140E050E0BA01888F198F2A8F3B8FF3
:1042E0004C8F5D8F6E8F7F8F9C014A8D5B8D60E060
:1042F00070E080E090E00FE10E94B52E49014A8312
:104300005983B62FA72FF82FE92F3091D80220918B
:10431000D702932F990F990B492F592F692F792F76
:10432000892F03E20E94B52E072D1B810E94EC2EDF
:1043300059016A017B018C0194014A8159816B2FDB
:104340007A2F8F2F9E2F0E94012FE5E3AE2EFCE0E7
:10435000BF2EC12CD12CE12CF12C00E010E00E94EA
:10436000852DAA88BB88CC88D22CE32CF42C052D73
:10437000162D0E94E02D28873F8349835A836B8343
:104380007C838D839E830DE00E94CE2E922E832E01
:10439000742E652E562E472E382E292E3091E2028D
:1043A0002091E102932F990F990BA92CB82CC72CBF
:1043B000D62CE52CF42C032D122D492F592F692FC3
:1043C000792F892F0E94852D0E94852D09E10E9459
:1043D000CE2EA884BF80C980DA80EB80FC800D815E
:1043E0001E810E94EC2E19012A013B014C012889F3
:1043F0003989522F4427422B532B952F990F990B14
:104400009A01492F592F692F792F892F0E94852DC5
:1044100003E10E94CE2E59016A017B018C019101BA
:10442000A201B301C4010E94EC2E08E00E94CE2E2E
:1044300059016A017B01E82F192F6E857F85562F60
:104440004427462B572B952F990F990B9A01492FEB
:10445000592F692F792F892F04E00E94B52E0E2F36
:104460000E94EC2EB901CA010E94043020E030E025
:1044700040E85BE30E94973020E030E048EC52E4F3
:104480000E94922FEC85FD856083718382839383E4
:1044900080E090E002C081E090E0A0960FB6F89432
:1044A000DEBF0FBECDBFDF91CF911F910F91FF9067
:1044B000EF90DF90CF90BF90AF909F908F907F90C4
:1044C0006F905F904F903F902F9008958F929F92A2
:1044D000AF92BF92CF92DF92EF92FF92CF93DF9392
:1044E000C0919302D0919402209709F4A4C0409106
:1044F000CB025091CC028091C80290E0A0E0B0E0E5
:104500006C017D018CE0CC0CDD1CEE1CFF1C8A953F
:10451000D1F79091C902892F90E0A0E0B0E024E0AB
:10452000880F991FAA1FBB1F2A95D1F78C299D2997
:10453000AE29BF292091CA0222952F70822B6C01CF
:104540007D0134E0F694E794D794C7943A95D1F777
:1045500060E070E0C41AD50AE60AF70AE3E0B6950F
:10456000A79597958795EA95D1F7440F551F661F34
:10457000771F4C015D01841A950AA60AB70AA501A6
:104580009401A091CD02B091CE020E947D2D4B01ED
:104590005C01ABE0B694A79497948794AA95D1F761
:1045A000A7019601C701B6010E943A2D9B01AC01FB
:1045B000BCE05695479537952795BA95D1F7A091C8
:1045C000CF02B091D0020E947D2DDC01CB012EE004
:1045D000B695A795979587952A95D1F7A50194014A
:1045E000280F391F4A1F5B1F2093E3023093E40218
:1045F0004093E5025093E602A5E0B0E00E94722DE0
:10460000DC01CB0180589F4FAF4FBF4F692F7A2FEE
:104610008B2F992787FD9A950E94063020E030E085
:1046200048EC52E40E94922F688379838A839B83AB
:1046300080E090E002C081E090E0DF91CF91FF90B8
:10464000EF90DF90CF90BF90AF909F908F900895A4
:104650008FE99FE00197F1F700C0000023E030E010
:104660004AEF68EC72E086E70E94A81F26E030E07F
:1046700048E86BEC72E086E70E94A81F0E94662261
:1046800021E030E0892B11F420E030E0C9010895E9
:104690008FE99FE00197F1F700C000000E942823F6
:1046A000892BD1F423E030E047EF65EC72E086E738
:1046B0000E94A81F22E130E04EE861ED72E086E73B
:1046C0000E94A81F0E94422031E020E0892B09F4BB
:1046D00030E0832F922F089581E090E008950C94AC
:1046E0004823CF93DF930E946622EC010E94422070
:1046F0008C239D23DF91CF9108952091B900287FCD
:10470000283209F140F4203139F1283189F028307C
:1047100009F075C00AC0203509F43FC0283509F4F6
:104720005BC0203409F06BC025C0009709F16AC056
:104730008130910521F08C30910509F066C02AEF97
:104740002093BB0039C08230910521F08D30910556
:1047500009F05EC025EA49C08330910519F08E301A
:10476000910511F42DEEECCF8B30910509F053C07B
:104770002CEEE6CF8430910531F08F30910541F079
:104780008BEF9FEF08952091BB002093C50222C0BC
:104790002091BB002093CB021DC09C012550310904
:1047A0002530310558F42091BB00FC01EF53FD4F3B
:1047B00020838930910571F425E817C09C012051B0
:1047C00031092731310550F52091BB00FC01E4543B
:1047D000FD4F208325EC09C08A30910529F0879789
:1047E00041F089EF9FEF089521E02093BC000196EE
:1047F00008950E94712381E08093BC0006C088EF79
:104800009FEF08958FEF9FEF089580E090E0089567
:104810008DEF9FEF08958CEF9FEF08958AEF9FEF44
:104820000895EF92FF920F931F93CF93DF937C0134
:104830008B01EA011092E7021092E8021092E9025D
:104840001092EA021092EB021092EC0260E08DE10D
:104850000E94681F853EC9F4F092A802E092A70268
:104860001093A6020093A502D093A402C093A302C2
:1048700048E06DE28DE10E94371F4BE061E38DE17E
:104880000E94371F80E090E002C081E090E0DF915D
:10489000CF911F910F91FF90EF900895EF92FF92AB
:1048A0000F931F9360939F027093A0028093A102C5
:1048B0009093A20220939B0230939C0240939D020E
:1048C00050939E02E0929702F09298020093990210
:1048D00010939A021F910F91FF90EF900895089501
:1048E000EF92FF920F931F93CF93DF93E7EEF2E0E7
:1048F00002811381C481D581E090A702F090A802C3
:1049000060817181072E000C880B990B0E94063084
:1049100020E030E040EA51E40E94922F20919F0273
:104920003091A0024091A1025091A2020E94252F35
:10493000F7016083718382839383E090A502F090F6
:10494000A602B801110F880B990B0E94063020E0D7
:1049500030E040EA51E40E94922F20919B02309176
:104960009C0240919D0250919E020E94252FF701CA
:1049700060837183828393830091A3021091A402C8
:10498000BE01DD0F880B990B0E94063020E030E05D
:1049900040EA51E40E94922F2091970230919802B0
:1049A0004091990250919A020E94252FF80160834C
:1049B00071838283938380E090E0DF91CF911F9198
:1049C0000F91FF90EF90089526E030E042E367EE0C
:1049D00072E08DE10E94A81F0E94702421E030E067
:1049E000892B11F420E030E0C90108958F929F9245
:1049F000AF92BF92CF92DF92EF92FF920F931F93ED
:104A0000CF93DF93CDB7DEB7EDEEF2E01192A2E0E7
:104A1000E63FFA07D9F79093BC028093BB027093EC
:104A2000BA026093B9025093B8024093B702309330
:104A3000B6022093B5021093B4020093B302F09231
:104A4000B202E092B102D092B002C092AF02B09234
:104A5000AE02A092AD029092AC028092AB028F8522
:104A600098899093AA028093A90265E788E60E943C
:104A7000681F813749F540E86BE688E60E94371FDA
:104A800040E06BE688E60E94371F48E16CE188E66B
:104A90000E94371F80E090E0A0E8B1E4809301031A
:104AA00090930203A0930303B093040348E16BE1E6
:104AB00088E60E94371F80ED97E09093060380936D
:104AC000050380E090E002C081E090E0DF91CF91AB
:104AD0001F910F91FF90EF90DF90CF90BF90AF901C
:104AE0009F908F90089522E030E041E463EF72E000
:104AF00088E60E94A81F80E090E00895EF92FF9260
:104B00000F931F93CF93DF93EDEEF2E002811381B9
:104B1000102701271027C481D581DC27CD27DC276A
:104B2000E090BB02F090BC0260817181762767271C
:104B30007627072E000C880B990B0E9406302091D7
:104B400001033091020340910303509104030E943A
:104B5000973020E030E040E058E30E949730F701C2
:104B60006083718382839383E090B902F090BA02EC
:104B7000B801110F880B990B0E9406302091010398
:104B80003091020340910303509104030E94973037
:104B900020E030E040E058E30E949730F701608366
:104BA0007183828393830091B7021091B802BE0192
:104BB000DD0F880B990B0E94063020910103309184
:104BC000020340910303509104030E94973020E0B8
:104BD00030E040E058E30E949730F8016083718331
:104BE0008283938380E090E0DF91CF911F910F91BA
:104BF000FF90EF90089526E030E04BE36DEE72E019
:104C000088E60E94A81F0E947E2580E090E008951B
:104C1000CF92DF92EF92FF920F931F93CF93DF9388
:104C2000EDEEF2E0C284D384DC24CD24DC24E484E1
:104C3000F584FE24EF24FE24C0910503D0910603E1
:104C40000091B3021091B40280859185982789273D
:104C500098278C9FB0018D9F700D9C9F700D112423
:104C6000072E000C880B990B0E94063020E030E0E4
:104C700040E058E30E949730F8016083718382839B
:104C800093830091B1021091B202CC9EB001CD9EEF
:104C9000700DDC9E700D1124072E000C880B990BF3
:104CA0000E94063020E030E040E058E30E94973058
:104CB000F80160837183828393830091AF02109126
:104CC000B002EC9EB001ED9E700DFC9E700D1124A3
:104CD000072E000C880B990B0E94063020E030E074
:104CE00040E058E30E949730F8016083718382832B
:104CF0009383DF91CF911F910F91FF90EF90DF9001
:104D0000CF90089526E030E047E665EF72E088E650
:104D10000E94A81F0E94082680E090E008952EE0DF
:104D200030E04BE36DEE72E088E60E94A81F0E941F
:104D30007E250E94082680E090E008950895A0E175
:104D4000B0E0E5EAF6E20C947E2E7C011B016A01DC
:104D5000FC0117821682838181FF44C39E012F5F6D
:104D60003F4F3901F7019381F10193FD859193FF45
:104D700081911F01882309F431C3853239F493FDF1
:104D8000859193FF81911F01853239F4B70190E03D
:104D90000E941D3256016501E5CF10E0512C912C87
:104DA000FFE1F915D8F08B3279F038F4803279F0E0
:104DB0008332A1F4F92DF0612EC08D3261F0803381
:104DC00069F4292D21602DC0392D3260932E892D53
:104DD0008460982E2AC0E92DE86015C097FC2DC08C
:104DE00020ED280F2A3088F496FE06C03AE0139F83
:104DF000200D1124122F19C08AE0589E200D112475
:104E0000522EE92DE0629E2E10C08E3231F496FCB7
:104E1000E5C2F92DF0649F2E08C08C3621F4292DAF
:104E20002068922E02C0883641F4F10193FD8591ED
:104E300093FF81911F018111B3CF9BEB980F9330AA
:104E400020F4992D9061805E07C09BE9980F933004
:104E500008F066C1992D9F7E96FF16E09F73992EEC
:104E6000853619F49064992E08C0863621F4392FBE
:104E70003068932E02C01111115097FE07C01C33E9
:104E800050F444244394410E27E00BC0183038F00E
:104E900027E017E005C027E09CE3492E02C0212F40
:104EA000412C560184E0A80EB11CF601608171818D
:104EB00082819381042DA3010E9428316C01F98124
:104EC000FC87F0FF02C0F3FF06C091FC06C092FE13
:104ED00006C000E205C00DE203C00BE201C000E025
:104EE0008C858C7019F001115AC29BC297FE10C0BC
:104EF0004C0CFC85F4FF04C08A81813309F44A9488
:104F0000141474F528E0241578F588E0482E2CC098
:104F100096FC2AC0812F90E08C159D059CF03CEFFB
:104F2000C3163FEFD30674F0892D8068982E0AC00F
:104F3000E2E0F0E0EC0FFD1FE10FF11D8081803316
:104F400019F411501111F4CF97FE0EC0442443946C
:104F5000410E812F90E0C816D9062CF41C1904C00C
:104F60004424439401C010E097FE06C01C141D04A5
:104F700034F4C601019605C085E090E002C081E0EE
:104F800090E001110196112331F0212F30E02F5FC5
:104F90003F4F820F931F252D30E08217930714F4A3
:104FA000581A01C0512C892D897049F4552039F0C7
:104FB000B70180E290E00E941D325A94F7CF00239F
:104FC00029F0B701802F90E00E941D3293FC09C0A8
:104FD000552039F0B70180E390E00E941D325A94C9
:104FE000F7CF97FE4CC04601D7FE02C0812C912C12
:104FF000C60188199909F301E80FF91FFE87ED87AB
:10500000960124193109388B2F87012F10E0119553
:10501000019511093FEF8316930629F4B7018EE23B
:1050200090E00E941D32C814D9044CF08F859889F5
:105030008815990524F4ED85FE85818101C080E302
:10504000F1E08F1A91082D853E852F5F3F4F3E87F7
:105050002D87801691062CF0B70190E00E941D323A
:10506000D9CFC814D90441F49A81963320F49533EA
:1050700019F43C8534FF81E3B70190E04EC08A818A
:10508000813319F09C859F7E9C87B70190E00E9438
:105090001D32111105C094FC18C085E690E017C0C0
:1050A000B7018EE290E00E941D321E5F82E001E0B7
:1050B000080FF301E80FF11D8081B70190E00E9415
:1050C0001D32802F0113F3CFE6CF85E490E0B701C6
:1050D0000E941D32D7FC06C0C114D10441F4EC85F6
:1050E000E4FF05C0D194C194D1088DE201C08BE2E8
:1050F000B70190E00E941D3280E32AE0C216D1047D
:105100002CF08F5FFAE0CF1AD108F7CFB70190E00B
:105110000E941D32B701C601C0960E941D3254C1C3
:10512000833631F0833779F0833509F056C020C0DB
:10513000560132E0A30EB11CF6018081898301E0A3
:1051400010E0630112C05601F2E0AF0EB11CF6018F
:10515000C080D18096FE03C0612F70E002C06FEF67
:105160007FEFC6010E9412328C01F92DFF7714C027
:10517000560122E0A20EB11CF601C080D18096FE3D
:1051800003C0612F70E002C06FEF7FEFC6010E9485
:1051900000328C01F92DF0689F2EF3FD1AC0852D89
:1051A00090E008171907A8F4B70180E290E00E9488
:1051B0001D325A94F4CFF60197FC859197FE8191A8
:1051C0006F01B70190E00E941D3251105A940150B6
:1051D00011090115110579F7F7C0843611F08936E8
:1051E00061F5560197FE09C024E0A20EB11CF6013C
:1051F00060817181828193810AC0F2E0AF0EB11C9F
:10520000F60160817181072E000C880B990BF92D36
:10521000FF769F2E97FF09C09095809570956195B8
:105220007F4F8F4F9F4FF0689F2E2AE030E0A30101
:105230000E94C132C82EC6183FC0092D853721F4FF
:105240000F7E2AE030E01DC0097F8F3691F018F400
:10525000883559F0C3C0803719F0883711F0BEC0C7
:10526000006104FF09C0046007C094FE08C0066026
:1052700006C028E030E005C020E130E002C020E1B7
:1052800032E0560107FF09C084E0A80EB11CF60108
:10529000608171818281938108C0F2E0AF0EB11C00
:1052A000F6016081718180E090E0A3010E94C1322B
:1052B000C82EC6180F77902E96FE0BC0092D0E7FB4
:1052C000C11650F494FE0AC092FC08C0092D0E7E4F
:1052D00005C0DC2C092D03C0DC2C01C0D12E04FF3D
:1052E0000DC0FE01EC0DF11D8081803311F4097EAB
:1052F00009C002FF06C0D394D39404C0802F8678DF
:1053000009F0D39403FD11C000FF06C01C2DD51475
:1053100080F4150D1D190DC0D51458F4B70180E2A5
:1053200090E00E941D32D394F7CFD51410F45D188D
:1053300001C0512C04FF10C0B70180E390E00E942F
:105340001D3202FF17C001FD03C088E790E002C0D4
:1053500088E590E0B7010CC0802F867859F001FFF6
:1053600002C08BE201C080E207FD8DE2B70190E050
:105370000E941D32C11638F4B70180E390E00E940C
:105380001D321150F7CFCA94F301EC0DF11D80814D
:10539000B70190E00E941D32C110F5CF15C0F4E0B6
:1053A000F51560F584E0581A93FE1FC0011127C05F
:1053B0002C8523FF2AC006E810E0392D3071932E8A
:1053C000F8018491811124C0552009F4E4CCB7017F
:1053D00080E290E00E941D325A94F6CFF701868158
:1053E000978126C08FEF9FEF23C0B70180E290E046
:1053F0000E941D325A945110F8CFD8CF512CB701CA
:10540000802F90E00E941D32D3CF0AE810E0D5CF64
:1054100091108052B70190E00E941D320F5F1F4F24
:10542000CFCF23E0251510F483E0BDCF512CC0CFA2
:105430006096E2E10C949A2ECF93DF93CDB7DEB75E
:10544000C65FD2400FB6F894DEBF0FBECDBF84E07A
:1054500084B987EC85B991E097B98EEF88B986E178
:105460008AB98FEF8BB921E732E03093890020931E
:10547000880010928500109284008CE08093810057
:1054800080916F00826080936F0080E1E9E7F2E035
:10549000DF01282F1D922A95E9F7E6E6F2E0DF0109
:1054A0001D928A95E9F727E630E03093C5002093F6
:1054B000C40088E18093C1008091C100806880931E
:1054C000C10020E031E030930A032093090393BF29
:1054D0000E94101F6EE572E082E692E00E941820A2
:1054E000892B21F08FE091E00E946F328AE292E0F6
:1054F0009F938F935EE2852E52E0952E62E3A62E57
:1055000062E0B62E7AE3C72E72E0D72EEEE3EE2EDF
:10551000E2E0FE2E02E412E02EE532E046E452E044
:105520006AE472E08EE492E00E94F6240F900F90FD
:10553000892B21F08FE091E00E946F32789489E10D
:1055400091E00E946F3287B1836087B918B862E238
:1055500071E0CE018B519D4F0E940B321E01B1EDC7
:105560002B1ABDEF3B0AEFEF23E284EFE15020401E
:105570008040E1F700C00000BE016F5F7F4F80E018
:105580000E94300D6BE271E0C1010E940B323F922C
:105590002F92A1E6B1E0BF93AF930E94593262E926
:1055A00071E0CE0181539D4F0E9455130F900F90D3
:1055B0000F900F90882329F01F928F9384E691E03B
:1055C0004DC042E1BE016B517D4FCE0181559D4FD3
:1055D0000E94460D81113EC0C754DD4F488159815C
:1055E0006A817B81C95BD240CE0181559D4F0E946B
:1055F0009D1163E971E0C1010E940B323F922F922D
:1056000081E691E09F938F930E945932BE016155CC
:105610007D4FC1010E9495190F900F900F900F9030
:10562000019631F483ED91E00E946F3218B89BCF60
:10563000CE0181559D4F0E949111419A409842E1BF
:10564000BE016B517D4FCE0181559D4F0E94460D8D
:10565000882369F01F928F938DE791E09F938F933A
:105660000E9459320F900F900F900F907CCFC7542B
:10567000DD4F488159816A817B81C95BD240CE016F
:1056800081559D4F0E949D110E948F260E946F237D
:105690004AE0A42EB12CC12CD12CE12CF12C00E03D
:1056A00010E020912002309121024091220250917D
:1056B000230260912402709125028091260290912C
:1056C00027020E94852D922E832E742E652E562E33
:1056D000472ECB50DD4F8883C55FD240CA50DD4F87
:1056E0009883C65FD240A0901802B0901902C09073
:1056F0001A02D0901B02E0901C02F0901D02009153
:105700001E0210911F020E94012F2F3B344D414079
:105710005105610571058105910519F110F190EEB2
:10572000A92E23E9B22E34E0C32ED12CE12CF12C8A
:1057300000E010E0292D382D472D562D652D742DB4
:10574000CB50DD4F8881C55FD240CA50DD4F988174
:10575000C65FD2400E940F2EA0E00E940A2F09F0DF
:105760001CC1CA50DD4F2881C65FD2402F93CB5059
:10577000DD4F8881C55FD2408F934F925F926F92C9
:105780007F928F929F92A5EEB1E0BF93AF933F922D
:105790002F920E949F323F922F9281E691E09F9339
:1057A0008F930E945932BE0161557D4FC1010E9405
:1057B0009519809161028F93809160028F938091FF
:1057C0005F028F9380915E028F93809165028F9329
:1057D000809164028F93809163028F938091620223
:1057E0008F938EEE91E09F938F933F922F920E9422
:1057F0009F323F922F9281E691E09F938F930E9478
:1058000059320FB6F894DEBF0FBECDBFBE01615551
:105810007D4FC1010E949519809149028F9380911B
:1058200048028F93809147028F93809146028F9315
:1058300080914D028F9380914C028F9380914B0207
:105840008F9380914A028F93809151028F93809120
:1058500050028F9380914F028F9380914E028F93CD
:10586000AAEEB1E0BF93AF933F922F920E949F3276
:105870003F922F9281E691E09F938F930E9459323D
:10588000BE0161557D4FC1010E94951980913D0275
:105890008F9380913C028F9380913B028F938091F4
:1058A0003A028F93809141028F93809140028F93AF
:1058B00080913F028F9380913E028F9380914502A9
:1058C0008F93809144028F93809143028F938091B4
:1058D00042028F938AEE91E09F938F933F922F9293
:1058E0000E949F320FB6F894DEBF0FBECDBF3F922D
:1058F0002F92A1E6B1E0BF93AF930E945932BE014F
:1059000061557D4FC1010E949519809155028F9379
:10591000809154028F93809153028F938091520211
:105920008F93809159028F93809158028F93809129
:1059300057028F93809156028F9380915D028F93CF
:1059400080915C028F9380915B028F9380915A02C9
:105950008F9387EF91E09F938F933F922F920E94B6
:105960009F323F922F9284E092E09F938F930E9408
:105970005932BE0161557D4FC1010E94951988B110
:10598000B3E08B2788B9CE0181559D4F0E949111BC
:105990000FB6F894DEBF0FBECDBF60914E0270917E
:1059A0004F02809150029091510280904A02909053
:1059B0004B02A0904C02B0904D0240904602509095
:1059C000470260904802709049029B01AC010E941E
:1059D00097306B017C01A5019401C501B4010E94BF
:1059E00097309B01AC01C701B6010E94262F6B01C5
:1059F0007C01A3019201C301B2010E9497309B0177
:105A0000AC01C701B6010E94262F20E030E040E83B
:105A100050E40E94923018160CF011CE8AE0A82EA5
:105A2000B12CC12CD12CE12CF12C00E010E0209104
:105A30002002309121024091220250912302609174
:105A400024027091250280912602909127020E94E3
:105A5000852D209318023093190240931A02509317
:105A60001B0260931C0270931D0280931E02909390
:105A70001F02E5CDDB018F939F930E94722DBF9192
:105A8000AF91A29F800D911DA39F900DB29F900D8D
:105A900011240895A1E21A2EAA1BBB1BFD010DC003
:105AA000AA1FBB1FEE1FFF1FA217B307E407F507CE
:105AB00020F0A21BB30BE40BF50B661F771F881FAA
:105AC000991F1A9469F760957095809590959B0140
:105AD000AC01BD01CF010895EE0FFF1F0590F491B9
